:020000040000fa
:080000000002040000000000f2
:020000040000fa
:100008000c0300000c0300000c0300000c030000ac
:100018000c0300000c0300000c0300000c0300009c
:100028000c0300000c0300000c0300000c0300008c
:100038000c0300000c0300000c0300000c0300007c
:10004800e40200000c0300000c0300000c03000095
:100058000c0300000c0300000c0300000c0300005c
:100068000c0300000c0300000c0300000c0300004c
:100078000c0300000c0300000c0300000c0300003c
:100088000c0300000c0300000c0300000c0300002c
:100098000c0300000c0300000c0300000c0300001c
:1000a8000c0300000c0300000c0300000c0300000c
:1000b8000c0300000c0300000c0300000c030000fc
:1000c8000c0300000c0300000c0300000c030000ec
:1000d8000c0300000c0300000c0300000c030000dc
:1000e8000c0300000c0300000c0300000c030000cc
:1000f8000c0300000c0300000c0300000c030000bc
:100108000c0300000c0300000c0300000c030000ab
:100118000c0300000c0300000c0300000c0300009b
:100128000c0300000c0300000c0300000c0300008b
:100138000c0300000c0300000c0300000c0300007b
:100148000c0300000c0300000c0300000c0300006b
:100158000c0300000c0300000c0300000c0300005b
:100168000c0300000c0300000c0300000c0300004b
:100178000c0300000c0300000c0300000c0300003b
:100188000c0300000c0300000c0300000c0300002b
:100198000c0300000c0300000c0300000c0300001b
:1001a8000c0300000c0300000c0300000c0300000b
:1001b800625500000c0300000c0300000c03000053
:1001c8000c0300000c0300000c0300000c030000eb
:1001d8000c0300000c0300000c0300000c030000db
:1001e8000c0300000c0300000c0300000c030000cb
:0801f8000c0300000c030000e1
:020000040000fa
:100208000c0300000c0300000c0300000c030000aa
:100218000c0300000c0300000c0300000c0300009a
:100228000c0300000c0300000c0300000c0300008a
:100238000c0300000c0300000c0300000c0300007a
:10024800e40200000c0300000c0300000c03000093
:100258000c0300000c0300000c0300000c0300005a
:100268000c0300000c0300000c0300000c0300004a
:100278000c0300000c0300000c0300000c0300003a
:100288000c0300000c0300000c0300000c0300002a
:100298000c0300000c0300000c0300000c0300001a
:1002a8000c0300000c0300000c0300000c0300000a
:1002b8000c0300000c0300000c0300000c030000fa
:1002c8000c0300000c0300000c0300000c030000ea
:1002d8000c0300000c0300000c0300000c030000da
:1002e8000c0300000c0300000c0300000c030000ca
:1002f8000c0300000c0300000c0300000c030000ba
:100308000c0300000c0300000c0300000c030000a9
:100318000c0300000c0300000c0300000c03000099
:100328000c0300000c0300000c0300000c03000089
:100338000c0300000c0300000c0300000c03000079
:100348000c0300000c0300000c0300000c03000069
:100358000c0300000c0300000c0300000c03000059
:100368000c0300000c0300000c0300000c03000049
:100378000c0300000c0300000c0300000c03000039
:100388000c0300000c0300000c0300000c03000029
:100398000c0300000c0300000c0300000c03000019
:1003a8000c0300000c0300000c0300000c03000009
:1003b800625500000c0300000c0300000c03000051
:1003c8000c0300000c0300000c0300000c030000e9
:1003d8000c0300000c0300000c0300000c030000d9
:1003e8000c0300000c0300000c0300000c030000c9
:0803f8000c0300000c030000df
:020000040000fa
:10040000cf8b21000eff27000e01880000000000a6
:1004100000012000200288000c00070020412a0073
:10042000010020000f000700000020000000e00095
:1004300002003200000002000000000088a4020058
:10044000000000000040da000000fe0000742100ff
:100450000000e0000200320000202000900188002f
:1004600000000600a1028800800078000000eb0078
:100470001a003700e280400054a0b4009101ba0095
:10048000e280400054a0b4009102ba00e280400033
:1004900054a0b4000002eb00472bde00f507b200c9
:1004a000a6018800602ce10008003a000049eb003a
:1004b0000201e800020039003420ec0002f0a00044
:1004c0008301e900f9ff3e00040037006128e100e4
:1004d000010032000082eb00040007001101ba00a5
:1004e0000200e000e3ff3a000000060004d0a30091
:1004f000e20f49001c003900810278003549ba003a
:100500000201e800020039003420ec0002f0a000f3
:100510008301e9000f0032002549ba000201e8001a
:10052000020039003420ec0002f0a0008301e90051
:10053000080032000400e0000600320015c9ba00cd
:100540000201e800020039003420ec0002f0a000b3
:100550008301e9008180e80054a0b4000300e000ba
:10056000e2ff3a00000006009102ba000559780047
:100570008301e900f7ff3200c82ade000559780040
:100580008301e900f3ff32000400e000f1ff3200d4
:1005900011d9ba00eeff3700ba9004000000000045
:1005a000688e040000000000fe8d040000000000c2
:1005b000e2990400000000001a9704000000000007
:1005c000ea9604000000000000a0fe003600f800db
:1005d000849fbe00869fbe003200f80004202000e9
:1005e000940188000000fa000002eb005408880023
:1005f0008500a90040840200000000000080fa008d
:100600003200f9004f03be004f02be003600f90071
:100610000080fe00004006000040da000000fe00fe
:10062000839f68000100e00002003d0060001000b0
:10063000e08018000300e00002003d0060011100ae
:10064000e0811900050007004f00e00002003b00b8
:1006500060001000e0801800000006006022b80072
:10066000060220000000d0008180d2000482d20067
:100670008582d2000000a0000202520083825a004c
:10068000030031000202420083824a000000a10000
:100690000603e900f3ff3a0000000600e487470084
:1006a000889fbe008a9fbe008c9fbe008e1f780070
:1006b000a48d2000d5468000e08f52000b003a0048
:1006c000e4024200d54688002547880024029800ad
:1006d00014478800a44290000504a0002542980019
:1006e000e44290000504a0006542980067044000c1
:1006f0004244de004244dd0012478000c4912000e5
:10070000c98b2100848454002500200011000900b9
:100710008504d80080bf9f00050744000e074700ee
:100720000003eb00e4054400fc8b210004065600a6
:100730000806460002003700160020000d01780070
:100740002242900061026200020032000a0037007b
:10075000150978009202780025429000610262003b
:10076000fbff320008024100848f52000200390072
:10077000e00f54003f003d00920678000d00a100fc
:10078000828f5600edff3e00e10f5300eaff3a0072
:100790000fba9700840f540002003600890f5400ee
:1007a000100039006143b800614ab900b0ff2f0062
:1007b000010020000402500085825800840f53007d
:1007c000858f5b00020035000b05780006003700be
:1007d000110009000986d8000982b90004057800d3
:1007e000010037000e0578000a0078008900070034
:1007f000e10f400005003a000b0578000b0078007f
:1008000084000700e10f40002b00320024478000e5
:10081000000a78002447800064034200a44290004c
:10082000860f5000020032000504a00001003700ce
:100830000504a10025429800640555000a05400002
:100840000a0878002a478800a48d2000040d78004b
:1008500025478000254290000404a000a44298008f
:10086000204290000404a100244098000003eb0003
:10087000b2ff370014478800848f5200070036000b
:100880001403be003647880047478800120a7800e4
:100890008042eb00144780002542980017478000f3
:1008a00007097800224290000404a0002441980027
:1008b00064004100010037000000eb004f077800a2
:1008c0004f06be004f05be004f04be004f00b100f2
:1008d00000000600e00f50000800320064005000e5
:1008e00014478000840f5000010031001047880039
:1008f000204290000404a10024409800000006005b
:10090000889fbe008a9fbe000004be00e08f540096
:1009100005003a00e00f5400320032000800780071
:10092000ecff070030003700e00f540004003a00ed
:100930000900780059ff0700800478002a0037007a
:10094000640254009405780068fa9700610262001e
:100950000200320008007800deff0700090078007e
:100960004eff070080047800e08f54001e00320024
:10097000888f54001b00320069bd9700090555009f
:1009800042d5de0088855500c2ddde000a01780010
:100990008b0f5500010036000b0178004211dd007d
:1009a000880078000900780013000700888f540041
:1009b0000d0031004255dd000a854400880f5500c6
:1009c000090036000804550042c4de004244dd0040
:1009d000088444003447800045478000048cbe00f2
:1009e0000100370088047800090078004f05be0038
:1009f0004f04be000000060000027800020037002d
:100a0000315a78000201e900e00f5100fcff3a0082
:100a100000000600889fbe0080047800d048800057
:100a2000e00f500004003a000e0007000084eb00c5
:100a3000e00f500008003500d8488000e08f5400d7
:100a4000050032000900440006000700e00f5000d6
:100a500001003d000084eb00080078004f04be0058
:100a600000000600e00f500004003a00c49120008e
:100a7000d448880000027800060037000082eb00ae
:100a8000c58b2100850f500002003e00d048880031
:0c0a90000002eb000400780000000600eb
:020000040000fa
:100a9c000000000052850000000000001c00000057
:100aac007e0000001b0000001094000001000000fc
:100abc0010ca00000100000011000000020000003c
:100acc00115100000200000005a20000020000000d
:100adc0006bd0000020000000ad800000200000061
:100aec000b0e0000030000000b440000030000008c
:100afc00107a00000300000010b00000030000009a
:100b0c0006e60000030000000701000004000000de
:100b1c00071c0000040000000a370000040000005d
:100b2c00096d00000400000005a300000400000093
:100b3c0008be00000400000005d9000004000000fd
:100b4c000bf40000040000000b2a0000050000005c
:100b5c000b600000050000000b9600000500000073
:100b6c000bcc0000050000000b020000060000008a
:100b7c000b380000060000000b6e000006000000a1
:100b8c000ba40000060000000bda000006000000b9
:100b9c000b100000070000000546000007000000d5
:100bac0005610000070000000a7c0000070000003f
:100bbc000ab20000070000000ae80000070000006d
:100bcc000a1e00000800000013540000080000007a
:100bdc000ea50000080000000cdb0000080000005f
:100bec000c110000090000000e4700000900000075
:100bfc000b7d0000090000000bb300000900000091
:100c0c000de90000090000000f1f00000a000000a1
:100c1c00075500000a000000077000000a000000e1
:100c2c000d8b00000a0000000bc100000a00000040
:100c3c0013f700000a0000000f4800000b00000032
:100c4c000e7e00000b0000000cb400000b00000036
:100c5c000eea00000b0000000d2000000c0000004c
:100c6c000b5600000c0000000d8c00000c00000066
:100c7c000fc200000c0000000ff800000c00000078
:100c8c00142e00000d0000000e7f00000d0000006f
:100c9c000eb500000d0000000ceb00000d00000074
:100cac00072100000e0000000b3c00000e000000ad
:100cbc00087200000e0000000b8d00000e000000fa
:100ccc000bc300000e00000007f900000e0000002e
:100cdc000b1400000f0000000c4a00000f00000075
:100cec000a8000000f0000000cb600000f0000008e
:100cfc000bec00000f0000000722000010000000a9
:100d0c000c3d0000100000000d73000010000000ee
:100d1c0006a900001000000006c40000100000002e
:100d2c000cdf000010000000061500001100000090
:100d3c0014300000110000000d81000011000000b3
:100d4c000cb70000110000000ced000011000000b9
:100d5c000c230000120000000959000012000000d2
:100d6c00098f00001200000008c5000012000000ee
:100d7c000ce00000120000000b1600001300000035
:100d8c00104c0000130000000c8200001300000047
:100d9c000bb80000130000000aee00001300000066
:100dac000824000014000000053f0000140000009f
:100dbc00085a0000140000000b750000140000001d
:100dcc0000000000000000000000000000300000e7
:100ddc0000380000003c0000003e0000003f000016
:100dec00803f0000c03f0000e03f0000f03f0000eb
:100dfc00f83f0000fc3f0000f83f0000f03f00000f
:100e0c00e03f0000c03f0000803f0000003f0000ba
:100e1c00003e0000003c00000038000000300000e4
:100e2c0000000000000000000000000000000000b6
:100e3c0000000000000000000c0000001c0000007e
:100e4c003c0000007c000000fc000000fc010000e5
:100e5c00fc030000fc070000fc0f0000fc1f00005e
:100e6c00fc3f0000fc1f0000fc0f0000fc07000012
:100e7c00fc030000fc010000fc0000007c000000f2
:100e8c003c0000001c0000000c00000000000000f2
:100e9c000000000000000000000000000000000046
:100eac000000000000000000000000000100000035
:100ebc00800300000080000003000000800300009d
:100ecc0000c0000007000000c007000000e00000a8
:100edc000f000000e00f000000e000000f00000019
:100eec00f01f000000f000001f000000f01f0000c9
:100efc0000f800003f000000f83f000000f8000080
:100f0c003f000000fc7f000000fc00007f000000a0
:100f1c00fc7f000000fe0000ff000000feff000050
:100f2c0000fe0000ff0000000000000000000000b8
:100f3c0000000000000000000000000000000000a5
:100f4c00000000000000000000000000feff000098
:100f5c0000fe0000ff000000feff000000fc00008f
:100f6c007f000000fc7f000000fc00007f00000000
:100f7c00f83f000000f800003f000000f83f0000c0
:100f8c0000f000001f000000f01f000000f0000047
:100f9c001f000000e00f000000e000000f00000048
:100fac00e00f000000c0000007000000c0070000b8
:100fbc00008000000300000080030000008000009f
:100fcc000300000000010000000000000000000011
:100fdc000000000000000000000000000000000005
:100fec0000000000000000000000000000000000f5
:100ffc0000000000000000000000000000000000e5
:10100c0000000000000000000000000000000000d4
:10101c000000000000000000080c00000c0c000098
:10102c000c0c00000c0c00000c0c00000c0c000054
:10103c00040000000c0c00000c000000000000007c
:10104c000000000000000000000000000000000094
:10105c0000000000cc000000cc000000cc00000020
:10106c00cc000000cc000000cc000000cc00000044
:10107c00c4000000000000000000000000000000a0
:10108c000000000000000000000000000000000054
:10109c000000000000000000000000000000000044
:1010ac000000000000000000000000000000000034
:1010bc000000000000000000000000000000000024
:1010cc0000000000000000000000000060020000b2
:1010dc00200300002001000020010000fc0700009c
:1010ec00900100009000000098000000fe0300003a
:1010fc00480000004c0000004400000064000000a8
:10110c0000000000000000000000000000000000d3
:10111c0000000000000000000000000000000000c3
:10112c0000000000000000000000000000000000b3
:10113c006000000060000000f80100006c0300007b
:10114c0066010000660000006e0000007c000000dc
:10115c00f8010000e0010000e00300006003000063
:10116c00620300006203000066010000fc00000046
:10117c0060000000600000000000000000000000a3
:10118c000000000000000000000000000000000053
:10119c000000000000000000000000000000000043
:1011ac00000000003830000024180000660c00001d
:1011bc00660400006606000066030000a40100003f
:1011cc009c380000c06400006066000020660000cf
:1011dc0010660000182400000c1c00000000000029
:1011ec0000000000000000000000000000000000f3
:1011fc0000000000000000000000000000000000e3
:10120c000000000000000000e001000030030000be
:10121c0018030000180300001801000098010000da
:10122c0078000000787e00007c1c0000cc180000c8
:10123c00c6190000861b0000060f0000060e0000f9
:10124c000c1a0000f8710000000000000000000003
:10125c000000000000000000000000000000000082
:10126c000000000000000000000c00000c0c00004e
:10127c000c0c00000c0c000004000000000000002e
:10128c000000000000000000000000000000000052
:10129c0000000000000000000000000000600000e2
:1012ac0030100000080c00000c04000006060000c2
:1012bc00060600000606000006060000040c0000ee
:1012cc000c08000018300000600000000000000056
:1012dc0000000000030600000c08000018180000b5
:1012ec001030000030300000303000003030000092
:1012fc00301000001818000008040000060300005d
:10130c0000000000000000000000000000300000a1
:10131c00003000000022000001ae00000378000045
:10132c000078000000ae0000012200000130000037
:10133c000030000000000000000000000000000071
:10134c000000000000000000000000000000000091
:10135c000000000000000000000000000000000081
:10136c000000000000000000000000000000000071
:10137c000000000000000000000000000000000061
:10138c000000000000000000000000000000000051
:10139c0000000000000000000030000000300000e1
:1013ac000030000000fe00000130000000300000a2
:1013bc0000300000003000000000000000000000c1
:1013cc000000000000000000000000000000000011
:1013dc000000000000000000000000000000000001
:1013ec0000000000000000000000000000000000f1
:1013fc0000000000000000000000000000000000e1
:10140c000e0f00000c0c0000040200000000000095
:10141c0000000000000000000000000000000000c0
:10142c0000000000000000000000000000000000b0
:10143c007e00000000000000000000000000000022
:10144c000000000000000000000000000000000090
:10145c000000000000000000000000000000000080
:10146c000000000000000000000000000c0c000058
:10147c000c00000000000000000000000000000054
:10148c00000000000000000000020000000300004b
:10149c0000010000800100008001000080000000bd
:1014ac00c0000000c00000006000000060000000f0
:1014bc002000000030000000300000001000000090
:1014cc0018000000180000000c0000000c000000c8
:1014dc0004000000060000000600000002000000ee
:1014ec0000000000000000000000000000000000f0
:1014fc0000000000000000000000000000000000e0
:10150c0000000000f0000000c80100008c01000089
:10151c00840300000603000006030000060300001d
:10152c00060300000603000006030000060100008d
:10153c000c0100008c000000700000000000000096
:10154c00000000000000000000000000000000008f
:10155c00000000000000000000000000000000007f
:10156c00000000000000000000000000000000006f
:10157c0060000000780000006400000060000000c3
:10158c0060000000600000006000000060000000cf
:10159c0060000000600000006000000060000000bf
:1015ac0060000000fc0300000000000000000000d0
:1015bc00000000000000000000000000000000001f
:1015cc00000000000000000000000000000000000f
:1015dc000000000000000000000000007800000087
:1015ec00c40100008601000082010000800100009f
:1015fc00c0000000c00000006000000030000000cf
:10160c0030000000180000000c0100000601000072
:10161c00fe010000000000000000000000000000bf
:10162c0000000000000000000000000000000000ae
:10163c00000000000000000000000000000000009e
:10164c000000000000000000f8000000cc010000c9
:10165c0086010000800100008001000040000000b5
:10166c00f0000000800100000003000000030000f7
:10167c000003000000030000860100007800000059
:10168c00000000000000000000000000000000004e
:10169c00000000000000000000000000000000003e
:1016ac00000000000000000000000000000000002e
:1016bc0000000000c0000000e0000000e00000009e
:1016cc00d0000000d8000000c8000000c4000000da
:1016dc00c6000000c2000000ff030000c0000000b4
:1016ec00c0000000c0000000f0030000000000007b
:1016fc0000000000000000000000000000000000de
:10170c0000000000000000000000000000000000cd
:10171c0000000000000000000000000000000000bd
:10172c0000010000fc0000000400000004000000a8
:10173c00060000007e000000c200000080010000d6
:10174c00800100008001000080010000800000008a
:10175c00c30000003c00000000000000000000007e
:10176c00000000000000000000000000000000006d
:10177c00000000000000000000000000000000005d
:10178c0000000000000000000000000080010000cc
:10179c006000000018000000080000000c000000b1
:1017ac00f60000008e010000060300000603000096
:1017bc0006030000060300000c0100008c01000071
:1017cc00f00000000000000000000000000000001d
:1017dc0000000000000000000000000000000000fd
:1017ec0000000000000000000000000000000000ed
:1017fc00000000000000000000000000fc030000de
:10180c0002010000020100008001000080000000c5
:10181c00c00000004000000060000000200000003c
:10182c00300000003000000018000000080000002c
:10183c00000000000000000000000000000000009c
:10184c00000000000000000000000000000000008c
:10185c00000000000000000000000000000000007c
:10186c0000000000f8000000cc0100008601000020
:10187c00860100008e010000dc000000f00000007a
:10188c00c80100008c0300000603000006030000e2
:10189c00060300008c01000078000000000000002e
:1018ac00000000000000000000000000000000002c
:1018bc00000000000000000000000000000000001c
:1018cc00000000000000000000000000000000000c
:1018dc00f00000008c0100008401000006030000f1
:1018ec000603000006030000060300008c03000042
:1018fc00780300000001000080010000c00000001f
:10190c00200000001c00000000000000000000008f
:10191c0000000000000000000000000000000000bb
:10192c0000000000000000000000000000000000ab
:10193c0000000000000c00000c0c00000000000077
:10194c0000000000000c00000c0c00000000000067
:10195c00000000000000000000000000000000007b
:10196c000000000000000000000000000c0c000053
:10197c000c00000000000000000000000e0f000032
:10198c000c0c00000402000000000000000000002d
:10199c00000000000000000000000000000000003b
:1019ac00000000000000000000000000000000002b
:1019bc00000000000000000000010000e001000039
:1019cc003c000000060000001c000000f0000000bd
:1019dc00800100000000000000000000000000007a
:1019ec0000000000000000000000000000000000eb
:1019fc0000000000000000000000000000000000db
:101a0c0000000000000000000000000000000000ca
:101a1c0000000000000000000000000000000000ba
:101a2c00000000000000000000000000fe010000ab
:101a3c000000000000000000fe010000000000009b
:101a4c00000000000000000000000000000000008a
:101a5c00000000000000000000000000000000007a
:101a6c00000000000000000000000000000000006a
:101a7c00000000000000000000000000000000005a
:101a8c00000000000000000000000000000000004a
:101a9c00060000003c000000e00100008001000096
:101aac00f00000001e00000002000000000000001a
:101abc00000000000000000000000000000000001a
:101acc00000000000000000000000000000000000a
:101adc0000000000000000000000000000000000fa
:101aec00f8000000cc010000860100008601000017
:101afc008001000080010000c000000060000000b8
:101b0c0060000000300000003000000030000000d9
:101b1c001000000000000000300000003000000049
:101b2c003000000000000000000000000000000079
:101b3c000000000000000000000000000000000099
:101b4c000000000000000000000000000000000089
:101b5c000000000000000000000000000000000079
:101b6c003f000000c070000000300000c00000000a
:101b7c001880000001080000800100000c97000094
:101b8c0003840000180300004618000003660000e0
:101b9c00180300006618000003660000180300001c
:101bac0066180000016e000098010000cc9c00003b
:101bbc00008c0000730000001800000000380000ca
:101bcc0080000000e0e00000018000001f00000029
:101bdc0000000000000000000000000000000000f9
:101bec0000000000000000000000000000000000e9
:101bfc0000000000000000000040000000c00000d9
:101c0c0000a0000000a0000001a0000001100000d6
:101c1c00011000000310000003f80000030800008e
:101c2c0006080000060400000c0400000c1f000055
:101c3c001e0000000000000000000000000000007a
:101c4c000000000000000000000000000000000088
:101c5c000000000000000000000000000000000078
:101c6c000000000000fe0000008d0000030c0000ce
:101c7c00030c0000030c0000038c000001fc0000ae
:101c8c00018c0000030c0000070c0000060c000087
:101c9c00060c0000060c000003ff00000100000011
:101cac000000000000000000000000000000000028
:101cbc000000000000000000000000000000000018
:101ccc000000000000000000000000000000000008
:101cdc0000c00000073000000c080000000c0000e1
:101cec0000040000000600000006000000060000d2
:101cfc000006000000060000000c0000000c0000b4
:101d0c000838000004e000000300000000000000a0
:101d1c0000000000000000000000000000000000b7
:101d2c0000000000000000000000000000000000a7
:101d3c0000000000000000000000000000fe000099
:101d4c00010d0000070c00000e0c00000c0c000034
:101d5c00180c0000180c0000180c0000180c0000e7
:101d6c00180c0000180c00000c0c00000e0c0000ed
:101d7c0007ff000001000000000000000000000050
:101d8c000000000000000000000000000000000047
:101d9c000000000000000000000000000000000037
:101dac00000000000000000000ff0000030c000019
:101dbc00020c0000020c0000000c0000000c0000e3
:101dcc0000fc0000018c0000000c0000000c000066
:101ddc00000c0000000c0000040c000006ff0000ca
:101dec0003000000000000000000000000000000e4
:101dfc0000000000000000000000000000000000d7
:101e0c0000000000000000000000000000000000c6
:101e1c000000000000ff0000030c0000020c00009a
:101e2c00020c0000000c0000000c000000fc000084
:101e3c00018c0000000c0000000c0000000c0000e5
:101e4c00000c0000000c0000003f0000000000002f
:101e5c000000000000000000000000000000000076
:101e6c000000000000000000000000000000000066
:101e7c000000000000000000000000000000000056
:101e8c0000e000000310000006080000000c000039
:101e9c00000600000006000000060000008600009e
:101eac000f06000006060000060c0000060c0000e1
:101ebc000618000006f00000010000000000000001
:101ecc000000000000000000000000000000000006
:101edc0000000000000000000000000000000000f6
:101eec00000000000000000000000000003f0000a7
:101efc007e0c0000180c0000180c0000180c0000e0
:101f0c00180c000018fc00001f0c0000180c00003e
:101f1c00180c0000180c0000180c0000180c000025
:101f2c00183f00007e0000000000000000000000d0
:101f3c000000000000000000000000000000000095
:101f4c00000000000000000000000000003f000046
:101f5c000c0c00000c0c00000c0c00000c0c000015
:101f6c000c0c00000c0c00003f00000000000000f6
:101f7c000000000000000000000000000000000055
:101f8c00000000007e18000018180000181800004f
:101f9c001818000018180000181800001818000075
:101fac0018080000040300000000000000000000fe
:101fbc000000000000000000000000000000000015
:101fcc0000000000003f00000f0c0000020c00009d
:101fdc00018c0000004c0000006c0000003c000074
:101fec00006c000000ec000000cc0000008c000035
:101ffc00010c0000030c0000063f00001c00000058
:10200c0000000000000000000000000000000000c4
:10201c0000000000000000000000000000000000b4
:10202c0000000000000000000000000000000000a4
:10203c00003f0000000c0000000c0000000c000031
:10204c00000c0000000c0000000c0000000c000054
:10205c00000c0000000c0000000c0000000c000044
:10206c00040c000002ff0000030000000000000050
:10207c000000000000000000000000000000000054
:10208c000000000000000000000000000000000044
:10209c000000000000000000000000000000000034
:1020ac000000000000000000001e0000c001000045
:1020bc001ce00000001c0000e00000003cf00000f0
:1020cc00002c0000d00000006cd00000006c000060
:1020dc00c8000000ccc8000000cc0000cc00000000
:1020ec008cc50000008c0000c70000000cc3000071
:1020fc00000c0000c30000001ee100000300000003
:10210c0000000000000000000000000000000000c3
:10211c0000000000000000000000000000000000b3
:10212c0000000000000000000000000000000000a3
:10213c000000000000000000000000000000000093
:10214c000f7e00000c1800001c1800003c1800004a
:10215c002c1800004c180000cc1800008c19000042
:10216c000c1900000c1b00000c1e00000c1c0000c5
:10217c000c1c00003f1800000000000000000000d4
:10218c000000000000000000000000000000000043
:10219c000000000000000000000000000000000033
:1021ac00000000000000000000000000e003000040
:1021bc0018060000080c00000c0c000006180000ab
:1021cc00061800000618000006180000061800008b
:1021dc00061800000c0c00000c0400001802000093
:1021ec00f0010000000000000000000000000000f2
:1021fc0000000000000000000000000000000000d3
:10220c0000000000000000000000000000000000c2
:10221c000000000000000000fe0100000d030000a3
:10222c000c0600000c0600000c0600000c0600005a
:10223c000c030000fc0000000c0000000c0000006f
:10224c000c0000000c0000000c0000003f0000001f
:10225c000000000000000000000000000000000072
:10226c000000000000000000000000000000000062
:10227c000000000000000000000000000000000052
:10228c0000000000e003000018060000080c00002d
:10229c000c0c0000061800000618000006180000c0
:1022ac000618000006180000061800000c0c0000b0
:1022bc000c0c000018060000f001000000030000e8
:1022cc0000060000003800000000000000000000c4
:1022dc0000000000000000000000000000000000f2
:1022ec0000000000000000000000000000000000e2
:1022fc00fe0100000d0300000c0600000c0600009f
:10230c000c0600000c030000fc000000cc000000d8
:10231c00cc0000008c0100000c0300000c0300003a
:10232c000c0600003f1c0000000000000000000034
:10233c000000000000000000000000000000000091
:10234c000000000000000000000000000000000081
:10235c00000000000000000000000000f800000079
:10236c008c01000006000000060000000e000000ba
:10237c003c000000f8000000e001000080030000b9
:10238c0000030000020300000201000086010000af
:10239c007c000000000000000000000000000000b5
:1023ac000000000000000000000000000000000021
:1023bc000000000000000000000000000000000011
:1023cc000000000000000000ff0f0000610800008a
:1023dc006108000060000000600000006000000068
:1023ec006000000060000000600000006000000061
:1023fc00600000006000000060000000f8010000b8
:10240c0000000000000000000000000000000000c0
:10241c0000000000000000000000000000000000b0
:10242c0000000000000000000000000000000000a0
:10243c00000000003f7e00000c1800000c1800008b
:10244c000c1800000c1800000c1800000c180000f0
:10245c000c1800000c1800000c1800000c180000e0
:10246c00180c000038060000e0030000000000001b
:10247c000000000000000000000000000000000050
:10248c000000000000000000000000000000000040
:10249c000000000000000000000000000000000030
:1024ac001f3c00000c1800000c080000180800006d
:1024bc00180c000018040000300600003002000068
:1024cc00200200006003000060010000c001000059
:1024dc00c0010000800000000000000000000000af
:1024ec0000000000000000000000000000000000e0
:1024fc0000000000000000000000000000000000d0
:10250c0000000000000000000000000000000000bf
:10251c0000000000000000001fc20000070c0000bb
:10252c00060100000c060000010c00000701000071
:10253c000c8d0000010800008d000000988900003f
:10254c0000980000980000009898000000d000004f
:10255c00d0000000707000000070000070000000df
:10256c00706000000020000060000000000000000f
:10257c00000000000000000000000000000000004f
:10258c00000000000000000000000000000000003f
:10259c00000000000000000000000000000000002f
:1025ac00000000000000000000000000003f0000e0
:1025bc001f0c00000c18000006380000033000004f
:1025cc0001e0000001c0000000c0000001a00000fc
:1025dc000130000003180000060800000e0c00007b
:1025ec000c1f00003e000000000000000000000076
:1025fc0000000000000000000000000000000000cf
:10260c0000000000000000000000000000000000be
:10261c000000000000000000000700003e0c00005d
:10262c000c180000041800000230000003600000c9
:10263c0001e0000001c0000000c0000000c000006c
:10264c0000c0000000c0000000c0000000f000004e
:10265c00030000000000000000000000000000006b
:10266c00000000000000000000000000000000005e
:10267c00000000000000000000000000000000004e
:10268c000000000000fc0000070400000302000032
:10269c000380000001c0000000c0000000600000ca
:1026ac00007000000030000000180000001800004e
:1026bc00000c00000406000004fe000007000000ef
:1026cc0000000000000000000000000000000000fe
:1026dc00000000000000000000000000003e0000b0
:1026ec0006060000060600000606000006060000ae
:1026fc00060600000606000006060000060600009e
:10270c0006060000060600003e0000000000000067
:10271c0000000000000000000200000006000000a5
:10272c0006000000040000000c000000080000007f
:10273c00180000001800000010000000300000001d
:10274c00300000002000000060000000400000008d
:10275c0040000000c000000080000000800100006c
:10276c0080010000000100000003000000020000d6
:10277c00000000000000000000000000000000004d
:10278c003e300000303000003030000030300000af
:10279c0030300000303000003030000030300000ad
:1027ac003030000030300000303e000000000000ef
:1027bc0000000000000000000000000000200000ed
:1027cc00006000000070000000d0000000d8000085
:1027dc000088000000880000018c0000010400004b
:1027ec0003040000030200000300000000000000ce
:1027fc0000000000000000000000000000000000cd
:10280c0000000000000000000000000000000000bc
:10281c0000000000000000000000000000000000ac
:10282c00000000000000000000000000000000009c
:10283c00000000000000000000000000000000008c
:10284c00000000000000000000000000000000007c
:10285c00000000000000000000000000000000006c
:10286c00000000000000000000000000000000005c
:10287c000000000000fe000003000000000000004b
:10288c00000000000000000000000000000000003c
:10289c00030600000c0800001000000000000000ff
:1028ac00000000000000000000000000000000001c
:1028bc00000000000000000000000000000000000c
:1028cc0000000000000000000000000000000000fc
:1028dc0000000000000000000000000000000000ec
:1028ec000000000000000000f00000008c0100005f
:1028fc008601000080010000f00100008c01000046
:10290c008601000086010000c6010000bc07000023
:10291c0000000000000000000000000000000000ab
:10292c00000000000000000000000000000000009b
:10293c0000000000000000000c0000000e00000071
:10294c000c0000000c0000000c0000000c0000004b
:10295c000c000000cc0100003c0300001c07000030
:10296c000c0600000c0600000c0600000c06000013
:10297c000c0200001c010000f00000000000000030
:10298c00000000000000000000000000000000003b
:10299c00000000000000000000000000000000002b
:1029ac00000000000000000000000000000000001b
:1029bc00000000000000000000000000000000000b
:1029cc00e0010000180300000c00000006000000ed
:1029dc000600000006000000060000000c000000cd
:1029ec001c030000f00000000000000000000000cc
:1029fc0000000000000000000000000000000000cb
:102a0c0000000000000000000000000000000000ba
:102a1c0000030000c00300000003000000030000de
:102a2c00000300000003000000030000f00300009e
:102a3c0088030000040300000603000006030000e6
:102a4c0006030000060300000e030000cc0b000080
:102a5c00380700000000000000000000000000002b
:102a6c00000000000000000000000000000000005a
:102a7c00000000000000000000000000000000004a
:102a8c00000000000000000000000000000000003a
:102a9c000000000000000000f0000000080300002f
:102aac0004030000fe030000060000000600000006
:102abc00060000000c0000001c030000f0000000e9
:102acc0000000000000000000000000000000000fa
:102adc0000000000000000000000000000000000ea
:102aec0000600000501800000c0c00000c0c0000e2
:102afc007e0d00000c0c00000c0c00000c0c0000f7
:102b0c000c3f00000000000000000000000000006e
:102b1c0000000000000000000000000000000000a9
:102b2c000000000000000000000000000000000099
:102b3c00000000000000000000f800000c8c0000f9
:102b4c00030600000306000003060000038c0000cf
:102b5c0001f8000000180000001c000000f8000044
:102b6c00030600000e0300000c0300000c0600001e
:102b7c0006fc000001000000000000000000000046
:102b8c000000000000000000000c0000000f00001e
:102b9c00000c0000000c0000000c0000000c0000f9
:102bac00000c000000cc0000032c0000061c0000f0
:102bbc00060c0000060c0000060c0000060c0000c1
:102bcc00060c0000060c000006bf00001f000000f1
:102bdc0000000000000000000000000000000000e9
:102bec0000000000000000000000000000000000d9
:102bfc00000000000c0c000000000000000c0000a5
:102c0c000f0c00000c0c00000c0c00000c0c000055
:102c1c003f00000000000000000000000000000069
:102c2c000000000000000000000c00000c00000080
:102c3c00000000000c0f00000c0c00000c0c00003d
:102c4c000c0c00000c0c00000c0c0000040200002a
:102c5c000100000000000000000000000000000067
:102c6c00000c0000000f0000000c0000000c000025
:102c7c00000c0000000c0000000c0000008c000098
:102c8c00078c000001cc0000002c0000003c000070
:102c9c00006c000000cc0000008c0000010c000057
:102cac00031f00000f0000000000000000000000e7
:102cbc000000000000000000000000000000000008
:102ccc0000000000000000000c0f00000c0c0000c5
:102cdc000c0c00000c0c00000c0c00000c0c000088
:102cec000c0c00000c0c00003f0000000000000069
:102cfc0000000000000000000000000000000000c8
:102d0c0000000000000000000000000000000000b7
:102d1c0000000000000000000000000000000000a7
:102d2c000000000000000000000000000000000097
:102d3c00000000008ee30000016d0000160300008f
:102d4c001c0e0000030c0000060300000c06000023
:102d5c00030c0000060300000c060000030c00002e
:102d6c00060300000c06000003bf0000df0f00008c
:102d7c000000000000000000000000000000000047
:102d8c000000000000000000000000000000000037
:102d9c000000000000000000000000000000000027
:102dac000000000000000000000000000000000017
:102dbc000000000000000000000000000000000007
:102dcc00008e0000036d0000061c0000060c0000c5
:102ddc00060c0000060c0000060c0000060c00009f
:102dec00060c000006bf00001f00000000000000e1
:102dfc0000000000000000000000000000000000c7
:102e0c0000000000000000000000000000000000b6
:102e1c0000000000000000000000000000000000a6
:102e2c0000000000000000000000000000f00000a6
:102e3c0000880000030400000306000006060000e2
:102e4c000606000006060000060c0000021c00002e
:102e5c0001f0000000000000000000000000000075
:102e6c000000000000000000000000000000000056
:102e7c000000000000000000000000000000000046
:102e8c000000000000000000000000000000000036
:102e9c00000000000000000000ce0000013d00001a
:102eac00031c0000070c0000060c0000060c0000c0
:102ebc00060c0000060c0000021c000003ec0000d5
:102ecc00000c0000000c0000000c0000000c0000c6
:102edc00003f0000000000000000000000000000a7
:102eec0000000000000000000000000000000000d6
:102efc0000000000000000000000000000000000c6
:102f0c000000000000f0000002880000030c00002c
:102f1c000306000003060000030600000306000081
:102f2c00030e0000038c0000037800000300000077
:102f3c0003000000030000000300000003c00000b9
:102f4c000f00000000000000000000000000000066
:102f5c000000000000000000000000000000000065
:102f6c000000000000000000000000000000000055
:102f7c0000cc000001af0000019c0000001c000010
:102f8c00000c0000000c0000000c0000000c000005
:102f9c00000c0000003f00000000000000000000da
:102fac000000000000000000000000000000000015
:102fbc000000000000000000000000000000000005
:102fcc0000000000000000000000000000000000f5
:102fdc00000000000000000000000000007c000069
:102fec000066000000060000000e0000003c00001f
:102ffc0000f0000000c0000000c2000000c2000091
:10300c00003e000000000000000000000000000076
:10301c0000000000000000000000000000000000a4
:10302c00000000000000000000000000000800008c
:10303c000c0c00000cfe00000d0c00000c0c000031
:10304c000c0c00000c8c000078000000000000004c
:10305c000000000000000000000000000000000064
:10306c000000000000000000000000000000000054
:10307c000000000000000000000000000000000044
:10308c000c030000ce0300000c0300000c03000036
:10309c000c0300000c0300000c0300000c030000e8
:1030ac00cc0b0000380700000000000000000000fe
:1030bc000000000000000000000000000000000004
:1030cc0000000000000000000000000000000000f4
:1030dc0000000000000000000000000000000000e4
:1030ec000000000000000000000000009f0700002e
:1030fc00040200000c0100000c010000980100000b
:10310c0098000000900000007000000060000000bb
:10311c002000000000000000000000000000000083
:10312c000000000000000000000000000000000093
:10313c000000000000000000000000000000000083
:10314c000000000000000000000000000000000073
:10315c0000000000000000001ff10000044100000e
:10316c00842300008c2300008826000048360000d1
:10317c0058140000301c0000301c00003008000007
:10318c000000000000000000000000000000000033
:10319c000000000000000000000000000000000023
:1031ac000000000000000000000000000000000013
:1031bc000000000000000000000000000000000003
:1031cc00000000009f0700000c01000098000000a8
:1031dc00f00000006000000070000000d000000053
:1031ec0088010000040300008f07000000000000ad
:1031fc0000000000000000000000000000000000c3
:10320c0000000000000000000000000000000000b2
:10321c0000000000000000000000000000000000a2
:10322c000000000000000000000000000000000092
:10323c009f070000040200000c0100000c010000bc
:10324c009801000098000000900000007000000041
:10325c006000000060000000200000003000000052
:10326c00100000000f00000007000000000000002c
:10327c000000000000000000000000000000000042
:10328c000000000000000000000000000000000032
:10329c00000000000000000000000000fe01000023
:1032ac0082010000c200000060000000200000004d
:1032bc0030000000180000000c01000004010000a8
:1032cc00fe010000000000000000000000000000f3
:1032dc0000000000000000000000000000000000e2
:1032ec00000000004030000010180000181800000a
:1032fc003830000030100000081e00003030000094
:10330c003030000018180000181800003040000081
:10331c0000000000000000000c0c00000c0c000071
:10332c000c0c00000c0c00000c0c00000c0c000031
:10333c000c0c00000c0c00000c0c00000c0c000021
:10334c000c0c00000c0c0000000000000000000041
:10335c00020c000018180000181800000c0c0000db
:10336c000c0c000078100000080c00000c1c000075
:10337c0018180000180800000c02000000000000e3
:10338c000000000000000000000000000000000031
:10339c000000000000000000000000000000000021
:1033ac0000000000000000000000000000180000f9
:1033bc00047c000002f2000001c2000001000000c9
:1033cc0000000000000000000000000000000000f1
:1033dc0000000000000000000000000000000000e1
:1033ec0000000000000000000000000000000000d1
:1033fc005000000065000000720000006600000034
:10340c006f000000720000006d00000069000000f9
:10341c006e00000067000000200000007400000037
:10342c006f000000750000006300000068000000e1
:10343c000000000073000000630000007200000038
:10344c0065000000650000006e0000002000000018
:10345c0063000000610000006c00000069000000c7
:10346c0062000000720000006100000074000000a7
:10347c00690000006f0000006e0000002e000000cc
:10348c0000000000540000006f00000075000000f8
:10349c0063000000680000002000000073000000c2
:1034ac006300000072000000650000006500000071
:1034bc006e00000020000000740000006f0000008f
:1034cc0000000000630000006f0000006e000000b0
:1034dc0074000000690000006e0000007500000020
:1034ec00650000002e0000000000000054000000e9
:1034fc006f0000002000000052000000450000009a
:10350c005000000045000000410000005400000085
:10351c002000000063000000610000006c0000004f
:10352c0069000000620000007200000061000000f1
:10353c0074000000690000006f0000006e000000c5
:10354c002c0000000000000072000000650000006c
:10355c0073000000650000007400000020000000f3
:10356c0074000000680000006500000020000000ee
:10357c00620000006f00000061000000720000009b
:10358c0064000000200000007700000068000000cc
:10359c00690000006c0000006500000000000000e5
:1035ac007000000072000000650000007300000055
:1035bc0073000000690000006e000000670000004e
:1035cc00200000006f0000006e00000020000000d2
:1035dc00740000006800000065000000200000007e
:1035ec007300000063000000720000006500000022
:1035fc0065000000650000006e0000000000000087
:10360c00750000006e0000007400000069000000ee
:10361c006c00000020000000740000006800000036
:10362c006500000020000000630000006100000045
:10363c006c000000690000006200000072000000d5
:10364c006100000074000000690000006f000000c1
:10365c006e0000000000000070000000720000000e
:10366c006f0000006d00000070000000740000008e
:10367c0020000000610000007000000070000000dd
:10368c006500000061000000720000007300000083
:10369c002e000000000000000001000000010000ee
:1036ac000001000000010000ff000000ff0000000e
:1036bc00ff000000fe000000fe000000fd00000006
:1036cc00fc000000fb000000fa000000f900000004
:1036dc00f8000000f7000000f6000000f500000004
:1036ec00f3000000f2000000f1000000ef00000009
:1036fc00ed000000ec000000ea000000e800000013
:10370c00e6000000e4000000e2000000e000000021
:10371c00de000000db000000d9000000d700000034
:10372c00d4000000d2000000cf000000cc0000004c
:10373c00ca000000c7000000c4000000c100000067
:10374c00be000000bb000000b8000000b500000087
:10375c00b2000000af000000ab000000a8000000a9
:10376c00a5000000a10000009e0000009a000000cf
:10377c0096000000930000008f0000008b000000fa
:10378c008800000084000000800000007c00000025
:10379c007800000074000000700000006c00000055
:1037ac006800000064000000600000005c00000085
:1037bc0058000000530000004f0000004b000000b8
:1037cc0047000000420000003e0000003a000000ec
:1037dc0035000000310000002c0000002800000023
:1037ec00240000001f0000001b0000001600000059
:1037fc00120000000d000000090000000400000091
:10380c000000000014f100006f0000006e000000ca
:10381c00200000007400000068000000650000003b
:10382c002000000066000000690000006c00000031
:10383c006c00000065000000640000000000000047
:10384c0063000000690000007200000063000000cb
:10385c006c0000006500000000000000500000003b
:10386c00720000006500000073000000730000008f
:10387c002000000026000000200000005200000084
:10388c00650000006c000000650000006100000095
:10389c007300000065000000000000006f6e000067
:1038ac0065000000747700006f0000007468000071
:1038bc007265000065000000666f00007572000004
:1038cc000066000069760000650000007369000066
:1038dc0078000000b02a00003ed70000e90000008c
:1038ec00ffff0000bbf70000ddae00003e2600002d
:1038fc009fb600007ed700004e850000020000003d
:10390c0003000000060000000001000001000000a0
:020000040000fa
:10391c000400fa00243a800070026200e00f5200aa
:10392c0003003200144120001407980002003700f5
:10393c003482200014079800e6e4a900e6c4a9002c
:10394c00ea04a900e3e4a900e3c4a900ed24a9005a
:10395c00e3a4a900e384a900e364a900e344a9005b
:10396c00e0e4a900ecc4a9000430800004b0a1007c
:10397c0004c0a10004308800043080000480a00042
:10398c000490a00004308800043080000460a10082
:10399c000470a1000430880000a6a9000086a900cc
:1039ac000046a900042020005430880024308000f8
:1039bc003400b3002430880009e6a90009c6a90028
:1039cc000986a9000946a9000926a90009a6a8008c
:1039dc000906a900443080000450a1000460a00036
:1039ec00443088006430800004e0a10004f0a100a1
:1039fc0064308800843e2000040f78001e02900082
:103a0c009e027800848f52000600310064308000e2
:103a1c0004b0a10004c0a10004d0a100643088004f
:103a2c00270037001e0290009e027800848f5200ff
:103a3c00230039001e0290009e027800110009003c
:103a4c008482d80000027800044278006742620049
:103a5c000482fb00670262004b22dd0066308000ae
:103a6c00f57f2c00850263000482720064308800ac
:103a7c001e0290009e027800110009008482d8007a
:103a8c0001027800e00f52000d003200643080001b
:103a9c004b22de00674262000442e800674262008b
:103aac000482fb00670262004b22dd00663080005e
:103abc00f57f2c008502630004827200643088005c
:103acc000fe6a8000002eb008430880000c2eb0077
:103adc000440780002e6b7000082eb003430880026
:103aec0005e6a80005c6a8000586a80005a6a8003e
:103afc00243080000490a10004a0a1002430880090
:103b0c000506a90040062000d4a302000000000016
:103b1c00143080000480a0000490a00014308800b1
:103b2c0001e6a80040062000d4a30200000000001b
:103b3c000080fa00000006000000fa00c4a2a800f1
:103b4c00c0a2a9004487a800353a8000f41f2000c9
:103b5c008482620004a0270004827200343a880038
:103b6c006bff07000002eb00243888000002eb001a
:103b7c00243988000002eb00343988000002eb0085
:103b8c00443888000002eb00543888000002eb0037
:103b9c00843988000002eb00b43988000002eb0085
:103bac00943988000002eb00c43988000002eb0055
:103bbc00d43988000002eb00043888000002eb00c6
:103bcc0014388800243880000450a1000460a1003f
:103bdc000470a00024388800243980000450a1000f
:103bec000460a1000470a0002439880024398000ee
:103bfc000400a0000410a1000420a10024398800b6
:103c0c0026c7a8002647a8002687a9002607a800d3
:103c1c0026a7a9002627a80026e7a800040f200045
:103c2c00e438880004142000f4388800040f2000c5
:103c3c00a438880004142000b438880084112000b3
:103c4c0004398800641420001439880094c1b3002e
:103c5c00044078002be7b7000042eb0004407800ea
:103c6c002ae7b70044c0b300044078002de7b70042
:103c7c000042eb00044078002ce7b700a47220004f
:103c8c00144278007e424200044078002ee7b700d0
:103c9c00c472200014427800644242000440780050
:103cac002fe7b700e472200014427800044078003b
:103cbc0028e7b700f4722000144278000440780022
:103ccc0029e7b70004002000250020005444880098
:103cdc0065448800040020002500200074448800fe
:103cec0085448800040020002500200094448800ae
:103cfc00a54488006022b8000400200025002000a4
:103d0c0004027800c43888006022b8000400200047
:103d1c002500200005027800d43888000082eb00d2
:103d2c00f43988002727a8002439800004c0a1009a
:103d3c0004d0a100243988009080a900a080a9009b
:103d4c0005e7a80040062000d4a3020000000000f4
:103d5c002707a8000002eb0034448800f30e200073
:103d6c00f21320008000eb000000eb00940607002b
:103d7c00ae9f02000000000040062000d4a3020009
:103d8c00000000000040eb00060007000080fa0075
:103d9c00000006000200fa00000f78000080fa0014
:103dac00000006000200fa00004f78009e427800e6
:103dbc000582fb00e4438800e4438000e00f5200de
:103dcc005200320024388000044278007f426200a6
:103ddc000482fb0070021200e10f5200f9ff340064
:103dec00f4438000cfa2de004c2bdd00c423de00a8
:103dfc00870373004c23dd0004448000cfa2de0057
:103e0c0004037300858373000400200005802500e3
:103e1c0004037300858373006022b8000602be00a1
:103e2c000402780004388800f4438000cfa2de003e
:103e3c004c2bdd00c423de00870373004c23dd0014
:103e4c0004448000cfa2de0004037300858373005a
:103e5c000400200005802500040373008583730093
:103e6c006022b8000602be000502780014388800f3
:103e7c000000000014448000cfa2de004c2bdd00bb
:103e8c00c423de00870373004c23dd002444800030
:103e9c00cfa2de00040373008583730004002000ae
:103eac000590250004037300858373006022b8001d
:103ebc000602be0004027800043888001444800016
:103ecc00cfa2de004c2bdd00c423de008703730081
:103edc004c23dd0024448000cfa2de0004037300d9
:103eec0085837300040020000590250004037300f3
:103efc00858373006022b8000602be0005027800bc
:103f0c0014388800000000001d00370024388000a1
:103f1c00044278007f4262000482fb0070021200af
:103f2c00e10f5200f9ff34006022b80004002000b9
:103f3c000580250004027800043888006022b8004f
:103f4c000400200005802500050278001438880044
:103f5c00000000006022b800f40e2f0035912500ff
:103f6c0004027800043888006022b800f40e2f0098
:103f7c0035912500050278001438880000000000f7
:103f8c000080fa00000006000800fa00000f78001c
:103f9c001107980022079800330798001e0278003a
:103fac00f44388001e029000044488002e02900006
:103fbc00144488003e02900024448800e4438000ae
:103fcc00e00f520004003200e44380000442780009
:103fdc000440780073ff07000080fa000000060020
:103fec001800fa00400798005107980062079800e3
:103ffc0073079800040f9800150f9800260f98006f
:10400c00370f980024388000044278007f42620009
:10401c000482fb0070021200ef0f5200f9ff340013
:10402c00353880000400280004826200e00f520042
:10403c00fbff3a0064388000040f7800743880006d
:10404c001407980084388000240798009438800066
:10405c00340798006022b8004e029000de029000f7
:10406c0004027800643888006022b8004e02900088
:10407c00de02900005027800743888006022b800d7
:10408c006e029000fe0290000402780084388800d2
:10409c006022b8006e029000fe02900005027800cb
:1040ac00943888000e0b90009e0b900004002000aa
:1040bc000520260004037300858373006022b8007a
:1040cc000602be0004027800043888000e0b900033
:1040dc009e0b9000040020000520260004037300b2
:1040ec00858373006022b8000602be0005027800ca
:1040fc0014388800000000002e0b9000be0b9000be
:10410c00040020000530260004037300858373002f
:10411c006022b8000602be00040278000438880051
:10412c002e0b9000be0b90000400200005302600e2
:10413c0004037300858373006022b8000602be007e
:10414c000502780014388800000000007eb2970049
:10415c00050020004c2bdd00c423de008703730018
:10416c004c23dd006eb297000500200004037300a1
:10417c0085837300040020000540260004037300af
:10418c00858373006022b8000602be00040278002a
:10419c00043888007eb29700050020004c2bdd000f
:1041ac00c423de00870373004c23dd006eb297003e
:1041bc0005002000040373008583730004002000b5
:1041cc000540260004037300858373006022b80049
:1041dc000602be00050278001438880000000000ba
:1041ec00aeba970004302000848f520003003200d6
:1041fc002eba9700e00f520033003a000eba970027
:10420c006123b800f4ff2f000500200006007800a1
:10421c00070378008403780005027800070060002b
:10422c000402630005002000c022dd000400200011
:10423c000403be006102b80004037300858373009d
:10424c0004002000056026000403730085837300be
:10425c006022b8000602be00040278000438880010
:10426c000eba97006123b800f4ff2f000500200060
:10427c0006007800070378008403780005027800b4
:10428c00070060000402630005002000c022dd006e
:10429c00040020000403be006102b8000403730094
:1042ac00858373000400200005602600040373005e
:1042bc00858373006022b8000602be0005027800f8
:1042cc0014388800000000004eba9700e10f52002d
:1042dc00030032004eba9700e00f52000200320089
:1042ec002400200044bf9f003eba9700e10f52000b
:1042fc00030032003eba9700e00f52000200320079
:10430c004400200034bf9f002eba97006123b800f0
:10431c001eba970005002000040373008583730008
:10432c004eba9700050020000403730085837300c8
:10433c003eba9700050020000403730085837300c8
:10434c0004002000057026000403730085837300ad
:10435c006022b8000602be0004027800043888000f
:10436c002eba97006123b8001eba970005002000f2
:10437c0004037300858373004eba97000500200078
:10438c0004037300858373003eba97000500200078
:10439c00040373008583730004002000057026005d
:1043ac0004037300858373006022b8000602be000c
:1043bc0005027800143888000000000024388000c2
:1043cc00044278007f4262000482fb0070021200fb
:1043dc00ef0f5200f9ff340035388000040028003c
:1043ec0004826200e00f5200fbff3a001e027800cc
:1043fc00643888001e029000743888002e029000e9
:10440c00843888003e029000943888001400200004
:10441c00040078000080fa00000006003600fa0064
:10442c00301798004117980052179800631798009e
:10443c0074179800051f9800161f9800271f9800e6
:10444c003e129000ce129000048fbe005e129000bf
:10445c00ee12900024079800350798007e12900009
:10446c008e1a900044079800550798001e1a900069
:10447c00ae1a90006407980075079800ceba9700a2
:10448c00050f98003eba9700140f9800aeba97002b
:10449c00250f98001eba9700340f98008eba97001b
:1044ac00450f98007eb29700540f9800eeb297001b
:1044bc00650f980024388000044278007f42620027
:1044cc000482fb0070021200ef0f5200f9ff34005f
:1044dc00353880000400280004826200e00f52008e
:1044ec00fbff3a0064388000740f98007438800029
:1044fc0004179800843880001417980094388000b2
:10450c00241798006022b8001e02be000402780036
:10451c00643888006022b8001e02be0005027800d4
:10452c00743888006022b8002e029000be02900001
:10453c0004027800843888006022b8002e029000b3
:10454c00be02900005027800943888004e0390005b
:10455c00de039000040020000520260004037300f5
:10456c00858373006022b8000602be000402780046
:10457c00043888004e039000de03900004002000f5
:10458c000520260004037300858373006022b800a5
:10459c000602be00050278001438880000000000f6
:1045ac006e039000fe0390000400200005302600ee
:1045bc0004037300858373006022b8000602be00fa
:1045cc0004027800043888006e039000fe0390000b
:1045dc00040020000530260004037300858373005b
:1045ec006022b8000602be0005027800143888006c
:1045fc00000000005e0a9000050020004c2bdd003e
:10460c00c423de00870373004c23dd006e0a900088
:10461c000500200004037300858373000400200050
:10462c000540260004037300858373006022b800e4
:10463c000602be0004027800043888005e0a90006e
:10464c00050020004c2bdd00c423de008703730023
:10465c004c23dd006e0a900005002000040373005b
:10466c0085837300040020000540260004037300ba
:10467c00858373006022b8000602be000502780034
:10468c001438880000000000ae0a900004302000ae
:10469c00848f5200030032002e0a9000e00f52006b
:1046ac0033003a004e0a90006123b800f4ff2f004b
:1046bc0005002000060078000703780084037800ca
:1046cc00050278000700600004026300050020006a
:1046dc00c022dd00040020000403be006102b8000b
:1046ec00040373008583730004002000056026001a
:1046fc0004037300858373006022b8000602be00b9
:10470c0004027800043888004e0a90006123b80037
:10471c00f4ff2f0005002000060078000703780046
:10472c00840378000502780007006000040263002f
:10473c0005002000c022dd00040020000403be00a0
:10474c006102b80004037300858373000400200029
:10475c000560260004037300858373006022b80093
:10476c000602be0005027800143888000000000024
:10477c000e0a9000e10f5200030032000e0a900066
:10478c00e00f52000200320024002000040f9800b9
:10479c001e0a9000e10f5200030032001e0a900026
:1047ac00e00f52000200320044002000140f980069
:1047bc002e0a90006123b8003e0a900005002000ec
:1047cc0004037300858373000e0a9000050020001b
:1047dc0004037300858373001e0a900005002000fb
:1047ec000403730085837300040020000570260009
:1047fc0004037300858373006022b8000602be00b8
:10480c0004027800043888002e0a90006123b80056
:10481c003e0a90000500200004037300858373009a
:10482c000e0a9000050020000403730085837300ba
:10483c001e0a90000500200004037300858373009a
:10484c0004002000057026000403730085837300a8
:10485c006022b8000602be000502780014388800f9
:10486c000000000024388000044278007f4262007f
:10487c000482fb0070021200ef0f5200f9ff3400ab
:10488c00353880000400280004826200e00f5200da
:10489c00fbff3a007e0a9000643888000e129000ec
:1048ac00743888001e129000843888002e129000f4
:1048bc009438880014002000040078000080fa006e
:1048cc00000006003600fa003017980041179800d7
:1048dc00521798006317980074179800051f9800da
:1048ec00161f9800271f98003e129000ce129000c1
:1048fc00048fbe005e129000ee1290002407980008
:10490c00350798007e1290008e1a9000440798008c
:10491c00550798001e1a9000ae1a90006407980074
:10492c00750798000002eb00040f98000002eb00e2
:10493c00140f980004082000240f9800040620008f
:10494c00340f98000002eb00440f9800ceba970089
:10495c00550f98003eba9700640f980024388000d9
:10496c00044278007f4262000482fb007002120055
:10497c00ef0f5200f9ff3400353880000400280096
:10498c0004826200e00f5200fbff3a0064388000a2
:10499c00740f9800743880000417980084388000d5
:1049ac001417980094388000241798006022b800df
:1049bc001e02be0004027800643888006022b80031
:1049cc001e02be0005027800743888006022b80010
:1049dc002e029000be0290000402780084388800f9
:1049ec006022b8002e029000be02900005027800f2
:1049fc00943888004e039000de03900004002000e1
:104a0c000520260004037300858373006022b80020
:104a1c000602be0004027800043888004e039000a1
:104a2c00de03900004002000052026000403730020
:104a3c00858373006022b8000602be000502780070
:104a4c0014388800000000006e039000fe039000f4
:104a5c0004002000053026000403730085837300d6
:104a6c006022b8000602be000402780004388800f8
:104a7c006e039000fe039000040020000530260019
:104a8c0004037300858373006022b8000602be0025
:104a9c000502780014388800000000005e0a9000bf
:104aac00050020004c2bdd00c423de0087037300bf
:104abc004c23dd006e0a90000500200004037300f7
:104acc008583730004002000054026000403730056
:104adc00858373006022b8000602be0004027800d1
:104aec00043888005e0a9000050020004c2bdd0085
:104afc00c423de00870373004c23dd006e0a900094
:104b0c00050020000403730085837300040020005b
:104b1c000540260004037300858373006022b800ef
:104b2c000602be0005027800143888000000000060
:104b3c00ae0a900004302000848f52000300320033
:104b4c002e0a9000e00f520033003a004e0a9000fb
:104b5c006123b800f4ff2f00050020000600780048
:104b6c0007037800840378000502780007006000d2
:104b7c000402630005002000c022dd0004002000b8
:104b8c000403be006102b800040373008583730044
:104b9c000400200005602600040373008583730065
:104bac006022b8000602be000402780004388800b7
:104bbc004e0a90006123b800f4ff2f00050020007e
:104bcc00060078000703780084037800050278005b
:104bdc00070060000402630005002000c022dd0015
:104bec00040020000403be006102b800040373003b
:104bfc008583730004002000056026000403730005
:104c0c00858373006022b8000602be00050278009e
:104c1c0014388800000000000e0a9000e10f5200ca
:104c2c00030032000e0a9000e00f52000200320026
:104c3c0024002000040f98001e0a9000e10f52007f
:104c4c00030032001e0a9000e00f520002003200f6
:104c5c0044002000140f98002e0a90006123b80025
:104c6c003e0a900005002000040373008583730046
:104c7c000e0a900005002000040373008583730066
:104c8c001e0a900005002000040373008583730046
:104c9c000400200005702600040373008583730054
:104cac006022b8000602be000402780004388800b6
:104cbc002e0a90006123b8003e0a900005002000e7
:104ccc0004037300858373000e0a90000500200016
:104cdc0004037300858373001e0a900005002000f6
:104cec000403730085837300040020000570260004
:104cfc0004037300858373006022b8000602be00b3
:104d0c000502780014388800000000002438800068
:104d1c00044278007f4262000482fb0070021200a1
:104d2c00ef0f5200f9ff34003538800004002800e2
:104d3c0004826200e00f5200fbff3a007e0a9000f2
:104d4c00643888000e129000743888001e1290008f
:104d5c00843888002e1290009438880014002000ab
:104d6c00040078000080fa00000006002400fa001d
:104d7c00200f9800310f9800420f9800530f9800a5
:104d8c00640f9800750f9800061798001717980075
:104d9c004eba9700040f78003eba9700140798009b
:104dac007e0a9000240798006e0a90000402ea0024
:104dbc001e0252000414b000340798001e1290001a
:104dcc00440798000e1290000402ea001e025200e2
:104ddc000414b000540798003e0290000500200017
:104dec00060f200006abb900060378006020b9005e
:104dfc00800378000703430084027800040f20002e
:104e0c00042ab80005034300860278002e039000a4
:104e1c00070020000402430085824b0064079800c1
:104e2c00750798005e02900005002000060f200018
:104e3c0006abb900060378006020b9008003780047
:104e4c000703430084027800040f2000042ab800f2
:104e5c0005034300860278004e03900007002000f3
:104e6c000402430085824b00040f9800150f980034
:104e7c009e1f78001e029000841f78000002eb0039
:104e8c00841f780004062000841f7800040820008a
:104e9c00841f78000002eb00841f78000002eb00f6
:104eac00841f78000e0b90009e0b90006e029000f9
:104ebc00fe0290004e099000de0990002e08900032
:104ecc00be08900055fd0700ee8757001400200027
:104edc00040078000080fa00000006001400fa00bc
:104eec0040079800510798006207980073079800d4
:104efc00040f9800150f98002438800004427800a5
:104f0c007f4262000482fb0070021200ef0f52001d
:104f1c0002003c000002eb00c5003700ee029000de
:104f2c004e029000048252000402e800240798000c
:104f3c00fe0290005e029000048252000402e8001f
:104f4c0034079800051420004e0290000482520091
:104f5c00740798005e02900044079800ce029000ff
:104f6c003e0290000482420064079800fe0290000a
:104f7c002e02900004825200540798005644800080
:104f8c00674480006022b8000602be00040278006c
:104f9c006438880056448000674480006022b80062
:104fac000602be0005027800743888007644800042
:104fbc00874480006022b8000602be00040278001c
:104fcc008438880076448000874480006022b800d2
:104fdc000602be0005027800943888005e0290003c
:104fec006123b900a5388000f47f200004826200a0
:104ffc000500200004b8b9000000780006a9b9002b
:10500c00820078000100400006037800040278005a
:10501c000432b80005004000800278004e03900076
:10502c00cfb3de00061f420007974a0004002000a1
:10503c00052026003e037200ae8372006022b80089
:10504c000602be0004027800043888000400200028
:10505c00052026003e037200ae8372006022b80069
:10506c000602be000502780014388800000000001b
:10507c001e0a9000e00f520015003a007e029000cc
:10508c006123b900a5388000f47f200004826200ff
:10509c000500200004b8b9000000780006a9b9008a
:1050ac0082007800010040000603780004027800ba
:1050bc000432b80005004000800278004e039000d6
:1050cc00cfb3de00061f420007974a0016003700d8
:1050dc00de0290000e0a9000048252006123b90097
:1050ec00a5388000f47f20000482620005002000b7
:1050fc0004b8b9000000780006a9b9008200780055
:10510c000100400006037800040278000432b80065
:10511c0005004000800278004e039000cfb3de0003
:10512c00061f420007974a000400200005302600a5
:10513c003e037200ae8372006022b8000602be000d
:10514c000402780004388800040020000530260092
:10515c003e037200ae8372006022b8000602be00ed
:10516c000502780014388800000000003e02900010
:10517c00cfa2de004c2bdd00c423de0087037300be
:10518c004c23dd002e029000cfa2de00040373003e
:10519c00858373000400200005402600040373007f
:1051ac00858373006022b8000602be0004027800fa
:1051bc00043888003e029000cfa2de004c2bdd00ac
:1051cc00c423de00870373004c23dd002e02900005
:1051dc00cfa2de000403730085837300040020005b
:1051ec000540260004037300858373006022b80019
:1051fc000602be000502780014388800000000008a
:10520c006022b800040e200005702600040278000d
:10521c00043888006022b800040e200005702600b7
:10522c0005027800143888000000000014002000eb
:10523c00040078000080fa00000006000600fa0066
:10524c001007980021079800e4438000e00f5200fb
:10525c0010003200f44380009e029000848f5200b4
:10526c00a3003500144480009e029000848f5200ed
:10527c00a1003c0004448000ae029000848f5200d8
:10528c009f00350024448000ae029000848f5200b1
:10529c009d003c001e029000040f78002e0290002e
:1052ac0014079800f41320001e02520024079800e3
:1052bc0076448000874480006022b8000602be005d
:1052cc00040278008438880076448000874480008b
:1052dc006022b8000602be000502780094388800ef
:1052ec0024388000044278007f4262000482fb0074
:1052fc0070021200e30f5200f9ff340034448000b6
:10530c006123b800f4ff2f00050020000600780090
:10531c00070378008403780005027800070060001a
:10532c000402630005002000c022dd000400200000
:10533c000403be006102b80004037300858373008c
:10534c0004002000056026000403730085837300ad
:10535c006022b8000602be000402780004388800ff
:10536c00344480006123b800f4ff2f0005002000b6
:10537c0006007800070378008403780005027800a3
:10538c00070060000402630005002000c022dd005d
:10539c00040020000403be006102b8000403730083
:1053ac00858373000400200005602600040373004d
:1053bc00858373006022b8000602be0005027800e7
:1053cc0014388800000000002e029000cfa2de00ee
:1053dc00060f200006abb900060378006020b90068
:1053ec00800378000703430084027800040f200038
:1053fc00042ab80005034300860278001e039000bf
:10540c00cfb3de000403430085834b00040020006f
:10541c000530260004037300858373006022b800f6
:10542c000602be0004027800043888002e029000a8
:10543c00cfa2de00060f200006abb90006037800f1
:10544c006020b900800378000703430084027800d1
:10545c00040f2000042ab8000503430086027800dc
:10546c001e039000cfb3de000403430085834b0082
:10547c0004002000053026000403730085837300ac
:10548c006022b8000602be000502780014388800bd
:10549c00000000006022b800140021000540260026
:1054ac0004027800043888006022b800140021003f
:1054bc000540260005027800143888000000000022
:1054cc006022b80004062000057026000402780053
:1054dc00043888006022b8000406200005702600fd
:1054ec00050278001438880000000000070037001f
:1054fc00000000000500370000000000030037002a
:10550c000000000001003700000000000080fa00dd
:10551c00000006000800fa002007980031079800e8
:10552c000002eb00140798002e029000e00f5200ce
:10553c000b0035003e029000e00f520008003500d1
:10554c00ae029000f4132000848f520004003c0043
:10555c00be029000f40e2000848f52000200340032
:10556c0014002000930037002e029000040f7800e6
:10557c003e02900024079800f41320001e025200f3
:10558c003407980024388000044278007f4262007f
:10559c000482fb0070021200ef0f5200f9ff34007e
:1055ac00353880000400280004826200e00f5200ad
:1055bc00fbff3a0096448000a74480006022b800ac
:1055cc000602be000402780064388800964480000d
:1055dc00a74480006022b8000602be0005027800d5
:1055ec00743888000e82e8006123b8006022b8008d
:1055fc000602be0004027800843888000e82e8009f
:10560c006123b8006022b8000602be0005027800d3
:10561c009438880024388000044278007f4262006d
:10562c000482fb0070021200e30f5200f9ff3400f9
:10563c003e029000cfa2de00060f200006abb900a0
:10564c00060378006020b90080037800070343004c
:10565c0084027800040f2000042ab80005034300dc
:10566c00860278002e039000cfb3de0004034300c3
:10567c0085834b00040020000520260004037300e2
:10568c00858373006022b8000602be000402780015
:10569c00043888003e029000cfa2de00060f2000e6
:1056ac0006abb900060378006020b90080037800cf
:1056bc000703430084027800040f2000042ab8007a
:1056cc0005034300860278002e039000cfb3de0062
:1056dc000403430085834b000400200005202600b2
:1056ec0004037300858373006022b8000602be00b9
:1056fc000502780014388800000000006022b80011
:10570c0004002000053026000402780004388800cc
:10571c006022b80004002000053026000502780045
:10572c0014388800000000006022b800140021002a
:10573c000540260004027800043888006022b80076
:10574c00140021000540260005027800143888005a
:10575c00000000006022b800040e20000570260036
:10576c0004027800043888006022b800040e20007f
:10577c00057026000502780014388800000000002f
:10578c0024388000044278007f4262000482fb00cf
:10579c0070021200ef0f5200f9ff34003538800010
:1057ac000400280004826200e00f5200fbff3a0064
:1057bc001e029000040078000080fa000000060031
:1057cc001000fa00400798005107980062079800f3
:1057dc0073079800ce0290006e029000848f5200e6
:1057ec00020034001400200005013700de02900096
:1057fc007e029000848f52000200340014002000be
:10580c00ff003700e4438000e00f52001900320023
:10581c00f4438000ce029000848f520002003d00c1
:10582c00f44380004407980014448000ee0290007a
:10583c00848f5200020034001444800064079800e6
:10584c0004448000de029000848f520002003d0070
:10585c00044480005407980024448000fe02900009
:10586c00848f52002f003400244480007407980069
:10587c002c0037004e029000e00f5200060035005d
:10588c004e029000f5132000850f520003003400e7
:10589c00f4132000010037000002eb0044079800cd
:1058ac005e029000e00f5200060035005e02900090
:1058bc00f50e2000850f520003003400f40e20007a
:1058cc00010037000002eb00540798006e029000b4
:1058dc00e00f5200060035006e029000f513200018
:1058ec00850f520003003400f41320000100370030
:1058fc000002eb00640798007e029000e00f52005b
:10590c00060035007e029000f50e2000850f520037
:10591c0003003400f40e2000010037000002eb00fd
:10592c0074079800ee0290004e0290000482520020
:10593c00040fe800fe0290005e0290000482520008
:10594c000402e80014079800051420004e02900091
:10595c0004825200740798005e029000440798007d
:10596c00ce0290001e029000048242006407980050
:10597c007e0290001e0252005407980024388000ca
:10598c00044278007f4262000482fb007002120025
:10599c00ef0f520002003c000002eb0098003700b1
:1059ac005e029000cfa2de00060f200006abb9000d
:1059bc00060378006020b9008003780007034300d9
:1059cc0084027800040f2000042ab8000503430069
:1059dc00860278004e039000cfb3de000402430031
:1059ec0085824b0024079800350798009644800068
:1059fc00a74480006022b8000602be0004027800b2
:105a0c008438880096448000a74480006022b80047
:105a1c000602be00050278009438880034448000e9
:105a2c006123b800f4ff2f00050020000600780069
:105a3c0007037800840378000502780007006000f3
:105a4c000402630005002000c022dd0004002000d9
:105a5c000403be006102b800040373008583730065
:105a6c000400200005602600040373008583730086
:105a7c006022b8000602be000402780004388800d8
:105a8c00344480006123b800f4ff2f00050020008f
:105a9c00060078000703780084037800050278007c
:105aac00070060000402630005002000c022dd0036
