:020000040000fa
:080000000002040000000000f2
:020000040000fa
:10000800180300001803000018030000180300007c
:10001800180300001803000018030000180300006c
:10002800180300001803000018030000180300005c
:10003800180300001803000018030000180300004c
:10004800f002000018030000180300001803000065
:10005800180300001803000018030000180300002c
:10006800180300001803000018030000180300001c
:10007800180300001803000018030000180300000c
:1000880018030000180300001803000018030000fc
:1000980018030000180300001803000018030000ec
:1000a80018030000180300001803000018030000dc
:1000b80018030000180300001803000018030000cc
:1000c80018030000180300001803000018030000bc
:1000d80018030000180300001803000018030000ac
:1000e800180300001803000018030000180300009c
:1000f800180300001803000018030000180300008c
:10010800180300001803000018030000180300007b
:10011800180300001803000018030000180300006b
:10012800180300001803000018030000180300005b
:10013800180300001803000018030000180300004b
:10014800180300001803000018030000180300003b
:10015800180300001803000018030000180300002b
:10016800180300001803000018030000180300001b
:10017800180300001803000018030000180300000b
:1001880018030000180300001803000018030000fb
:1001980018030000180300001803000018030000eb
:1001a80018030000180300001803000018030000db
:1001b800265b000018030000180300001803000065
:1001c80018030000180300001803000018030000bb
:1001d80018030000180300001803000018030000ab
:1001e800180300001803000018030000180300009b
:0801f8001803000018030000c9
:020000040000fa
:10020800180300001803000018030000180300007a
:10021800180300001803000018030000180300006a
:10022800180300001803000018030000180300005a
:10023800180300001803000018030000180300004a
:10024800f002000018030000180300001803000063
:10025800180300001803000018030000180300002a
:10026800180300001803000018030000180300001a
:10027800180300001803000018030000180300000a
:1002880018030000180300001803000018030000fa
:1002980018030000180300001803000018030000ea
:1002a80018030000180300001803000018030000da
:1002b80018030000180300001803000018030000ca
:1002c80018030000180300001803000018030000ba
:1002d80018030000180300001803000018030000aa
:1002e800180300001803000018030000180300009a
:1002f800180300001803000018030000180300008a
:100308001803000018030000180300001803000079
:100318001803000018030000180300001803000069
:100328001803000018030000180300001803000059
:100338001803000018030000180300001803000049
:100348001803000018030000180300001803000039
:100358001803000018030000180300001803000029
:100368001803000018030000180300001803000019
:100378001803000018030000180300001803000009
:1003880018030000180300001803000018030000f9
:1003980018030000180300001803000018030000e9
:1003a80018030000180300001803000018030000d9
:1003b800265b000018030000180300001803000063
:1003c80018030000180300001803000018030000b9
:1003d80018030000180300001803000018030000a9
:1003e8001803000018030000180300001803000099
:0803f8001803000018030000c7
:020000040000fa
:100400004f8c21000eff27000e0188000000000025
:100410000c00070060c52a00010020000f00070043
:10042000000020000000e000020032000000020096
:1004300000000000ccac0200000000000040da0028
:100440000000fe00407221000000e00002003200c7
:10045000002020009001880000000600a102880012
:10046000800078000000eb001a003700e2804000b6
:1004700054a0b4009101ba00e280400054a0b4003e
:100480009102ba00e280400054a0b4000002eb00e8
:10049000472bde00f507b200a6018800602ce100c2
:1004a00008003a000049eb000201e80002003900b0
:1004b0003420ec0002f0a0008301e900f9ff3e00c7
:1004c000040037006128e100010032000082eb00e7
:1004d000040007001101ba000200e000e3ff3a0047
:1004e0000000060004d0a300e20f49001c00390000
:1004f000810278003549ba000201e80002003900a3
:100500003420ec0002f0a0008301e9000f0032006b
:100510002549ba000201e800020039003420ec004d
:1005200002f0a0008301e900080032000400e000ae
:100530000600320015c9ba000201e80002003900c5
:100540003420ec0002f0a0008301e9008180e80083
:1005500054a0b4000300e000e2ff3a0000000600ef
:100560009102ba00055978008301e900f7ff3200d3
:10057000c82ade00055978008301e900f3ff320044
:100580000400e000f1ff320011d9ba00eeff37009d
:10059000029d040000000000ca9a04000000000050
:1005a000629a0400000000004ea504000000000054
:1005b000e8a2040000000000baa20400000000004d
:1005c000de8c040000000000ea8a04000000000045
:1005d000988b0400000000007089040000000000f7
:1005e00000a0fe003600f800849fbe00869fbe007b
:1005f0003200f80004202000940188000000fa0076
:100600000000eb00500888008500a900429102001c
:10061000000000000080fa003200f9004f03be0025
:100620004f02be003600f9000080fe0000400600c8
:100630000040da000000fe00839f68000100e00037
:1006400002003d0060001000e08018000300e000a0
:1006500002003d0060011100e08119000500070063
:100660004f00e00002003b0060001000e080180036
:10067000000006006022b800060220000000d00042
:100680008180d2000482d2008582d2000000a000c6
:100690000202520083825a0003003100020242002b
:1006a00083824a000000a1000603e900f3ff3a003c
:1006b00000000600e4874700889fbe008a9fbe00b6
:1006c0008c9fbe008e1f7800a18d2000d246800036
:1006d000e00f51000b003a0064814000d2468800d0
:1006e00022478800a100980011478800214190000e
:1006f0000204a000a2409800614190000204a00002
:10070000e2409800670440004244de004244dd00bd
:10071000114780000002eb004e922000498c21001e
:100720008e8454006400440080bf9f00614eb90075
:10073000010037008b0078002140900061006000cc
:10074000020032000a003700930878009101780017
:100750002340900061006000fbff320008814000f0
:10076000828f510002003900e00f540054003d0018
:1007700091057800818f5500eeff3e008e8f550069
:1007800003003900a08d2000808f5500e9ff39005b
:1007900020478000808f50005a003a00a08d200032
:1007a000808f550057003a000402e800e10f520024
:1007b000e0ff360022002000811f780011000900b0
:1007c0008204d800cf007800800f54000500360066
:1007d000890f5400030031000885e8000a05450030
:1007e000140037006142b800b2ff2f000300200060
:1007f0000c0151008d815900820f5200838f5a00e5
:100800000b003d00728c21000e01510008014100d7
:10081000809fbe00110009000981d8000001780006
:100820004f00be000991b9000205780001003700b1
:10083000080578000a00780076000700e10f400004
:1008400005003a000fbd97000a007800710007000c
:10085000e10f40002b003200214780008008780023
:1008600021478000e481400021419000830f500027
:10087000020032000204a000010037000204a100bf
:10088000a2409800640555000a0540000a08780057
:100890002a478800a18d2000010d780022478000a2
:1008a000a24090000104a00021419800a0409000c7
:1008b0000104a100214098000002eb009dff3700d9
:1008c00012478800828f5100070036001202be00d6
:1008d0003447880045478800110978000040eb0044
:1008e0001247800020419800154780008508780055
:1008f000214090000004a000a040980064804000c7
:10090000010037000000eb004f0778004f06be00e3
:100910004f05be004f04be004f00b10000000600ae
:100920006400500010478800a04090000104a1001e
:100930002140980000000600889fbe008a9fbe00ec
:1009400080047800010478006481540092057800e6
:1009500069f9970061016100020032000900780026
:10096000efff07000800780052ff0700000478003e
:10097000e00f54001b003200890f540019003200b0
:1009800068bd97000805550042d5de000980550076
:100990004280de000a017800800f55000100360019
:1009a000000178004211dd000800be0011000700c0
:1009b000890f54000b0031004255dd000a05440048
:1009c000890f55000700360089045500c2ccde00af
:1009d000c24cdd008904440030478000414780005c
:1009e000808cbe00080078004f05be004f04be009a
:1009f000000006008001780002003700b15978003d
:100a0000040178000202e900e00f5100fbff3a0008
:100a100000000600889fbe00800478001049800016
:100a2000e00f500004003a000e0007000084eb00c5
:100a3000e00f50000800350018498000e08f540096
:100a4000050032000900440006000700e00f5000d6
:100a500001003d000084eb00080078004f04be0058
:100a600000000600e00f500004003a004192200010
:100a70001149880080007800060037008080eb0074
:100a8000428c2100820f500002003e001049880075
:0c0a90008000eb00010078000000060070
:020000040000fa
:100a9c000000000052850000000000001c00000057
:100aac007e0000001b0000001094000001000000fc
:100abc0010ca00000100000011000000020000003c
:100acc00115100000200000005a20000020000000d
:100adc0006bd0000020000000ad800000200000061
:100aec000b0e0000030000000b440000030000008c
:100afc00107a00000300000010b00000030000009a
:100b0c0006e60000030000000701000004000000de
:100b1c00071c0000040000000a370000040000005d
:100b2c00096d00000400000005a300000400000093
:100b3c0008be00000400000005d9000004000000fd
:100b4c000bf40000040000000b2a0000050000005c
:100b5c000b600000050000000b9600000500000073
:100b6c000bcc0000050000000b020000060000008a
:100b7c000b380000060000000b6e000006000000a1
:100b8c000ba40000060000000bda000006000000b9
:100b9c000b100000070000000546000007000000d5
:100bac0005610000070000000a7c0000070000003f
:100bbc000ab20000070000000ae80000070000006d
:100bcc000a1e00000800000013540000080000007a
:100bdc000ea50000080000000cdb0000080000005f
:100bec000c110000090000000e4700000900000075
:100bfc000b7d0000090000000bb300000900000091
:100c0c000de90000090000000f1f00000a000000a1
:100c1c00075500000a000000077000000a000000e1
:100c2c000d8b00000a0000000bc100000a00000040
:100c3c0013f700000a0000000f4800000b00000032
:100c4c000e7e00000b0000000cb400000b00000036
:100c5c000eea00000b0000000d2000000c0000004c
:100c6c000b5600000c0000000d8c00000c00000066
:100c7c000fc200000c0000000ff800000c00000078
:100c8c00142e00000d0000000e7f00000d0000006f
:100c9c000eb500000d0000000ceb00000d00000074
:100cac00072100000e0000000b3c00000e000000ad
:100cbc00087200000e0000000b8d00000e000000fa
:100ccc000bc300000e00000007f900000e0000002e
:100cdc000b1400000f0000000c4a00000f00000075
:100cec000a8000000f0000000cb600000f0000008e
:100cfc000bec00000f0000000722000010000000a9
:100d0c000c3d0000100000000d73000010000000ee
:100d1c0006a900001000000006c40000100000002e
:100d2c000cdf000010000000061500001100000090
:100d3c0014300000110000000d81000011000000b3
:100d4c000cb70000110000000ced000011000000b9
:100d5c000c230000120000000959000012000000d2
:100d6c00098f00001200000008c5000012000000ee
:100d7c000ce00000120000000b1600001300000035
:100d8c00104c0000130000000c8200001300000047
:100d9c000bb80000130000000aee00001300000066
:100dac000824000014000000053f0000140000009f
:100dbc00085a0000140000000b750000140000001d
:100dcc0000000000000000000000000000300000e7
:100ddc0000380000003c0000003e0000003f000016
:100dec00803f0000c03f0000e03f0000f03f0000eb
:100dfc00f83f0000fc3f0000f83f0000f03f00000f
:100e0c00e03f0000c03f0000803f0000003f0000ba
:100e1c00003e0000003c00000038000000300000e4
:100e2c0000000000000000000000000000000000b6
:100e3c0000000000000000000c0000001c0000007e
:100e4c003c0000007c000000fc000000fc010000e5
:100e5c00fc030000fc070000fc0f0000fc1f00005e
:100e6c00fc3f0000fc1f0000fc0f0000fc07000012
:100e7c00fc030000fc010000fc0000007c000000f2
:100e8c003c0000001c0000000c00000000000000f2
:100e9c000000000000000000000000000000000046
:100eac000000000000000000000000000100000035
:100ebc00800300000080000003000000800300009d
:100ecc0000c0000007000000c007000000e00000a8
:100edc000f000000e00f000000e000000f00000019
:100eec00f01f000000f000001f000000f01f0000c9
:100efc0000f800003f000000f83f000000f8000080
:100f0c003f000000fc7f000000fc00007f000000a0
:100f1c00fc7f000000fe0000ff000000feff000050
:100f2c0000fe0000ff0000000000000000000000b8
:100f3c0000000000000000000000000000000000a5
:100f4c00000000000000000000000000feff000098
:100f5c0000fe0000ff000000feff000000fc00008f
:100f6c007f000000fc7f000000fc00007f00000000
:100f7c00f83f000000f800003f000000f83f0000c0
:100f8c0000f000001f000000f01f000000f0000047
:100f9c001f000000e00f000000e000000f00000048
:100fac00e00f000000c0000007000000c0070000b8
:100fbc00008000000300000080030000008000009f
:100fcc000300000000010000000000000000000011
:100fdc000000000000000000000000000000000005
:100fec0000000000000000000000000000000000f5
:100ffc0000000000000000000000000000000000e5
:10100c0000000000000000000000000000000000d4
:10101c000000000000000000080c00000c0c000098
:10102c000c0c00000c0c00000c0c00000c0c000054
:10103c00040000000c0c00000c000000000000007c
:10104c000000000000000000000000000000000094
:10105c0000000000cc000000cc000000cc00000020
:10106c00cc000000cc000000cc000000cc00000044
:10107c00c4000000000000000000000000000000a0
:10108c000000000000000000000000000000000054
:10109c000000000000000000000000000000000044
:1010ac000000000000000000000000000000000034
:1010bc000000000000000000000000000000000024
:1010cc0000000000000000000000000060020000b2
:1010dc00200300002001000020010000fc0700009c
:1010ec00900100009000000098000000fe0300003a
:1010fc00480000004c0000004400000064000000a8
:10110c0000000000000000000000000000000000d3
:10111c0000000000000000000000000000000000c3
:10112c0000000000000000000000000000000000b3
:10113c006000000060000000f80100006c0300007b
:10114c0066010000660000006e0000007c000000dc
:10115c00f8010000e0010000e00300006003000063
:10116c00620300006203000066010000fc00000046
:10117c0060000000600000000000000000000000a3
:10118c000000000000000000000000000000000053
:10119c000000000000000000000000000000000043
:1011ac00000000003830000024180000660c00001d
:1011bc00660400006606000066030000a40100003f
:1011cc009c380000c06400006066000020660000cf
:1011dc0010660000182400000c1c00000000000029
:1011ec0000000000000000000000000000000000f3
:1011fc0000000000000000000000000000000000e3
:10120c000000000000000000e001000030030000be
:10121c0018030000180300001801000098010000da
:10122c0078000000787e00007c1c0000cc180000c8
:10123c00c6190000861b0000060f0000060e0000f9
:10124c000c1a0000f8710000000000000000000003
:10125c000000000000000000000000000000000082
:10126c000000000000000000000c00000c0c00004e
:10127c000c0c00000c0c000004000000000000002e
:10128c000000000000000000000000000000000052
:10129c0000000000000000000000000000600000e2
:1012ac0030100000080c00000c04000006060000c2
:1012bc00060600000606000006060000040c0000ee
:1012cc000c08000018300000600000000000000056
:1012dc0000000000030600000c08000018180000b5
:1012ec001030000030300000303000003030000092
:1012fc00301000001818000008040000060300005d
:10130c0000000000000000000000000000300000a1
:10131c00003000000022000001ae00000378000045
:10132c000078000000ae0000012200000130000037
:10133c000030000000000000000000000000000071
:10134c000000000000000000000000000000000091
:10135c000000000000000000000000000000000081
:10136c000000000000000000000000000000000071
:10137c000000000000000000000000000000000061
:10138c000000000000000000000000000000000051
:10139c0000000000000000000030000000300000e1
:1013ac000030000000fe00000130000000300000a2
:1013bc0000300000003000000000000000000000c1
:1013cc000000000000000000000000000000000011
:1013dc000000000000000000000000000000000001
:1013ec0000000000000000000000000000000000f1
:1013fc0000000000000000000000000000000000e1
:10140c000e0f00000c0c0000040200000000000095
:10141c0000000000000000000000000000000000c0
:10142c0000000000000000000000000000000000b0
:10143c007e00000000000000000000000000000022
:10144c000000000000000000000000000000000090
:10145c000000000000000000000000000000000080
:10146c000000000000000000000000000c0c000058
:10147c000c00000000000000000000000000000054
:10148c00000000000000000000020000000300004b
:10149c0000010000800100008001000080000000bd
:1014ac00c0000000c00000006000000060000000f0
:1014bc002000000030000000300000001000000090
:1014cc0018000000180000000c0000000c000000c8
:1014dc0004000000060000000600000002000000ee
:1014ec0000000000000000000000000000000000f0
:1014fc0000000000000000000000000000000000e0
:10150c0000000000f0000000c80100008c01000089
:10151c00840300000603000006030000060300001d
:10152c00060300000603000006030000060100008d
:10153c000c0100008c000000700000000000000096
:10154c00000000000000000000000000000000008f
:10155c00000000000000000000000000000000007f
:10156c00000000000000000000000000000000006f
:10157c0060000000780000006400000060000000c3
:10158c0060000000600000006000000060000000cf
:10159c0060000000600000006000000060000000bf
:1015ac0060000000fc0300000000000000000000d0
:1015bc00000000000000000000000000000000001f
:1015cc00000000000000000000000000000000000f
:1015dc000000000000000000000000007800000087
:1015ec00c40100008601000082010000800100009f
:1015fc00c0000000c00000006000000030000000cf
:10160c0030000000180000000c0100000601000072
:10161c00fe010000000000000000000000000000bf
:10162c0000000000000000000000000000000000ae
:10163c00000000000000000000000000000000009e
:10164c000000000000000000f8000000cc010000c9
:10165c0086010000800100008001000040000000b5
:10166c00f0000000800100000003000000030000f7
:10167c000003000000030000860100007800000059
:10168c00000000000000000000000000000000004e
:10169c00000000000000000000000000000000003e
:1016ac00000000000000000000000000000000002e
:1016bc0000000000c0000000e0000000e00000009e
:1016cc00d0000000d8000000c8000000c4000000da
:1016dc00c6000000c2000000ff030000c0000000b4
:1016ec00c0000000c0000000f0030000000000007b
:1016fc0000000000000000000000000000000000de
:10170c0000000000000000000000000000000000cd
:10171c0000000000000000000000000000000000bd
:10172c0000010000fc0000000400000004000000a8
:10173c00060000007e000000c200000080010000d6
:10174c00800100008001000080010000800000008a
:10175c00c30000003c00000000000000000000007e
:10176c00000000000000000000000000000000006d
:10177c00000000000000000000000000000000005d
:10178c0000000000000000000000000080010000cc
:10179c006000000018000000080000000c000000b1
:1017ac00f60000008e010000060300000603000096
:1017bc0006030000060300000c0100008c01000071
:1017cc00f00000000000000000000000000000001d
:1017dc0000000000000000000000000000000000fd
:1017ec0000000000000000000000000000000000ed
:1017fc00000000000000000000000000fc030000de
:10180c0002010000020100008001000080000000c5
:10181c00c00000004000000060000000200000003c
:10182c00300000003000000018000000080000002c
:10183c00000000000000000000000000000000009c
:10184c00000000000000000000000000000000008c
:10185c00000000000000000000000000000000007c
:10186c0000000000f8000000cc0100008601000020
:10187c00860100008e010000dc000000f00000007a
:10188c00c80100008c0300000603000006030000e2
:10189c00060300008c01000078000000000000002e
:1018ac00000000000000000000000000000000002c
:1018bc00000000000000000000000000000000001c
:1018cc00000000000000000000000000000000000c
:1018dc00f00000008c0100008401000006030000f1
:1018ec000603000006030000060300008c03000042
:1018fc00780300000001000080010000c00000001f
:10190c00200000001c00000000000000000000008f
:10191c0000000000000000000000000000000000bb
:10192c0000000000000000000000000000000000ab
:10193c0000000000000c00000c0c00000000000077
:10194c0000000000000c00000c0c00000000000067
:10195c00000000000000000000000000000000007b
:10196c000000000000000000000000000c0c000053
:10197c000c00000000000000000000000e0f000032
:10198c000c0c00000402000000000000000000002d
:10199c00000000000000000000000000000000003b
:1019ac00000000000000000000000000000000002b
:1019bc00000000000000000000010000e001000039
:1019cc003c000000060000001c000000f0000000bd
:1019dc00800100000000000000000000000000007a
:1019ec0000000000000000000000000000000000eb
:1019fc0000000000000000000000000000000000db
:101a0c0000000000000000000000000000000000ca
:101a1c0000000000000000000000000000000000ba
:101a2c00000000000000000000000000fe010000ab
:101a3c000000000000000000fe010000000000009b
:101a4c00000000000000000000000000000000008a
:101a5c00000000000000000000000000000000007a
:101a6c00000000000000000000000000000000006a
:101a7c00000000000000000000000000000000005a
:101a8c00000000000000000000000000000000004a
:101a9c00060000003c000000e00100008001000096
:101aac00f00000001e00000002000000000000001a
:101abc00000000000000000000000000000000001a
:101acc00000000000000000000000000000000000a
:101adc0000000000000000000000000000000000fa
:101aec00f8000000cc010000860100008601000017
:101afc008001000080010000c000000060000000b8
:101b0c0060000000300000003000000030000000d9
:101b1c001000000000000000300000003000000049
:101b2c003000000000000000000000000000000079
:101b3c000000000000000000000000000000000099
:101b4c000000000000000000000000000000000089
:101b5c000000000000000000000000000000000079
:101b6c003f000000c070000000300000c00000000a
:101b7c001880000001080000800100000c97000094
:101b8c0003840000180300004618000003660000e0
:101b9c00180300006618000003660000180300001c
:101bac0066180000016e000098010000cc9c00003b
:101bbc00008c0000730000001800000000380000ca
:101bcc0080000000e0e00000018000001f00000029
:101bdc0000000000000000000000000000000000f9
:101bec0000000000000000000000000000000000e9
:101bfc0000000000000000000040000000c00000d9
:101c0c0000a0000000a0000001a0000001100000d6
:101c1c00011000000310000003f80000030800008e
:101c2c0006080000060400000c0400000c1f000055
:101c3c001e0000000000000000000000000000007a
:101c4c000000000000000000000000000000000088
:101c5c000000000000000000000000000000000078
:101c6c000000000000fe0000008d0000030c0000ce
:101c7c00030c0000030c0000038c000001fc0000ae
:101c8c00018c0000030c0000070c0000060c000087
:101c9c00060c0000060c000003ff00000100000011
:101cac000000000000000000000000000000000028
:101cbc000000000000000000000000000000000018
:101ccc000000000000000000000000000000000008
:101cdc0000c00000073000000c080000000c0000e1
:101cec0000040000000600000006000000060000d2
:101cfc000006000000060000000c0000000c0000b4
:101d0c000838000004e000000300000000000000a0
:101d1c0000000000000000000000000000000000b7
:101d2c0000000000000000000000000000000000a7
:101d3c0000000000000000000000000000fe000099
:101d4c00010d0000070c00000e0c00000c0c000034
:101d5c00180c0000180c0000180c0000180c0000e7
:101d6c00180c0000180c00000c0c00000e0c0000ed
:101d7c0007ff000001000000000000000000000050
:101d8c000000000000000000000000000000000047
:101d9c000000000000000000000000000000000037
:101dac00000000000000000000ff0000030c000019
:101dbc00020c0000020c0000000c0000000c0000e3
:101dcc0000fc0000018c0000000c0000000c000066
:101ddc00000c0000000c0000040c000006ff0000ca
:101dec0003000000000000000000000000000000e4
:101dfc0000000000000000000000000000000000d7
:101e0c0000000000000000000000000000000000c6
:101e1c000000000000ff0000030c0000020c00009a
:101e2c00020c0000000c0000000c000000fc000084
:101e3c00018c0000000c0000000c0000000c0000e5
:101e4c00000c0000000c0000003f0000000000002f
:101e5c000000000000000000000000000000000076
:101e6c000000000000000000000000000000000066
:101e7c000000000000000000000000000000000056
:101e8c0000e000000310000006080000000c000039
:101e9c00000600000006000000060000008600009e
:101eac000f06000006060000060c0000060c0000e1
:101ebc000618000006f00000010000000000000001
:101ecc000000000000000000000000000000000006
:101edc0000000000000000000000000000000000f6
:101eec00000000000000000000000000003f0000a7
:101efc007e0c0000180c0000180c0000180c0000e0
:101f0c00180c000018fc00001f0c0000180c00003e
:101f1c00180c0000180c0000180c0000180c000025
:101f2c00183f00007e0000000000000000000000d0
:101f3c000000000000000000000000000000000095
:101f4c00000000000000000000000000003f000046
:101f5c000c0c00000c0c00000c0c00000c0c000015
:101f6c000c0c00000c0c00003f00000000000000f6
:101f7c000000000000000000000000000000000055
:101f8c00000000007e18000018180000181800004f
:101f9c001818000018180000181800001818000075
:101fac0018080000040300000000000000000000fe
:101fbc000000000000000000000000000000000015
:101fcc0000000000003f00000f0c0000020c00009d
:101fdc00018c0000004c0000006c0000003c000074
:101fec00006c000000ec000000cc0000008c000035
:101ffc00010c0000030c0000063f00001c00000058
:10200c0000000000000000000000000000000000c4
:10201c0000000000000000000000000000000000b4
:10202c0000000000000000000000000000000000a4
:10203c00003f0000000c0000000c0000000c000031
:10204c00000c0000000c0000000c0000000c000054
:10205c00000c0000000c0000000c0000000c000044
:10206c00040c000002ff0000030000000000000050
:10207c000000000000000000000000000000000054
:10208c000000000000000000000000000000000044
:10209c000000000000000000000000000000000034
:1020ac000000000000000000001e0000c001000045
:1020bc001ce00000001c0000e00000003cf00000f0
:1020cc00002c0000d00000006cd00000006c000060
:1020dc00c8000000ccc8000000cc0000cc00000000
:1020ec008cc50000008c0000c70000000cc3000071
:1020fc00000c0000c30000001ee100000300000003
:10210c0000000000000000000000000000000000c3
:10211c0000000000000000000000000000000000b3
:10212c0000000000000000000000000000000000a3
:10213c000000000000000000000000000000000093
:10214c000f7e00000c1800001c1800003c1800004a
:10215c002c1800004c180000cc1800008c19000042
:10216c000c1900000c1b00000c1e00000c1c0000c5
:10217c000c1c00003f1800000000000000000000d4
:10218c000000000000000000000000000000000043
:10219c000000000000000000000000000000000033
:1021ac00000000000000000000000000e003000040
:1021bc0018060000080c00000c0c000006180000ab
:1021cc00061800000618000006180000061800008b
:1021dc00061800000c0c00000c0400001802000093
:1021ec00f0010000000000000000000000000000f2
:1021fc0000000000000000000000000000000000d3
:10220c0000000000000000000000000000000000c2
:10221c000000000000000000fe0100000d030000a3
:10222c000c0600000c0600000c0600000c0600005a
:10223c000c030000fc0000000c0000000c0000006f
:10224c000c0000000c0000000c0000003f0000001f
:10225c000000000000000000000000000000000072
:10226c000000000000000000000000000000000062
:10227c000000000000000000000000000000000052
:10228c0000000000e003000018060000080c00002d
:10229c000c0c0000061800000618000006180000c0
:1022ac000618000006180000061800000c0c0000b0
:1022bc000c0c000018060000f001000000030000e8
:1022cc0000060000003800000000000000000000c4
:1022dc0000000000000000000000000000000000f2
:1022ec0000000000000000000000000000000000e2
:1022fc00fe0100000d0300000c0600000c0600009f
:10230c000c0600000c030000fc000000cc000000d8
:10231c00cc0000008c0100000c0300000c0300003a
:10232c000c0600003f1c0000000000000000000034
:10233c000000000000000000000000000000000091
:10234c000000000000000000000000000000000081
:10235c00000000000000000000000000f800000079
:10236c008c01000006000000060000000e000000ba
:10237c003c000000f8000000e001000080030000b9
:10238c0000030000020300000201000086010000af
:10239c007c000000000000000000000000000000b5
:1023ac000000000000000000000000000000000021
:1023bc000000000000000000000000000000000011
:1023cc000000000000000000ff0f0000610800008a
:1023dc006108000060000000600000006000000068
:1023ec006000000060000000600000006000000061
:1023fc00600000006000000060000000f8010000b8
:10240c0000000000000000000000000000000000c0
:10241c0000000000000000000000000000000000b0
:10242c0000000000000000000000000000000000a0
:10243c00000000003f7e00000c1800000c1800008b
:10244c000c1800000c1800000c1800000c180000f0
:10245c000c1800000c1800000c1800000c180000e0
:10246c00180c000038060000e0030000000000001b
:10247c000000000000000000000000000000000050
:10248c000000000000000000000000000000000040
:10249c000000000000000000000000000000000030
:1024ac001f3c00000c1800000c080000180800006d
:1024bc00180c000018040000300600003002000068
:1024cc00200200006003000060010000c001000059
:1024dc00c0010000800000000000000000000000af
:1024ec0000000000000000000000000000000000e0
:1024fc0000000000000000000000000000000000d0
:10250c0000000000000000000000000000000000bf
:10251c0000000000000000001fc20000070c0000bb
:10252c00060100000c060000010c00000701000071
:10253c000c8d0000010800008d000000988900003f
:10254c0000980000980000009898000000d000004f
:10255c00d0000000707000000070000070000000df
:10256c00706000000020000060000000000000000f
:10257c00000000000000000000000000000000004f
:10258c00000000000000000000000000000000003f
:10259c00000000000000000000000000000000002f
:1025ac00000000000000000000000000003f0000e0
:1025bc001f0c00000c18000006380000033000004f
:1025cc0001e0000001c0000000c0000001a00000fc
:1025dc000130000003180000060800000e0c00007b
:1025ec000c1f00003e000000000000000000000076
:1025fc0000000000000000000000000000000000cf
:10260c0000000000000000000000000000000000be
:10261c000000000000000000000700003e0c00005d
:10262c000c180000041800000230000003600000c9
:10263c0001e0000001c0000000c0000000c000006c
:10264c0000c0000000c0000000c0000000f000004e
:10265c00030000000000000000000000000000006b
:10266c00000000000000000000000000000000005e
:10267c00000000000000000000000000000000004e
:10268c000000000000fc0000070400000302000032
:10269c000380000001c0000000c0000000600000ca
:1026ac00007000000030000000180000001800004e
:1026bc00000c00000406000004fe000007000000ef
:1026cc0000000000000000000000000000000000fe
:1026dc00000000000000000000000000003e0000b0
:1026ec0006060000060600000606000006060000ae
:1026fc00060600000606000006060000060600009e
:10270c0006060000060600003e0000000000000067
:10271c0000000000000000000200000006000000a5
:10272c0006000000040000000c000000080000007f
:10273c00180000001800000010000000300000001d
:10274c00300000002000000060000000400000008d
:10275c0040000000c000000080000000800100006c
:10276c0080010000000100000003000000020000d6
:10277c00000000000000000000000000000000004d
:10278c003e300000303000003030000030300000af
:10279c0030300000303000003030000030300000ad
:1027ac003030000030300000303e000000000000ef
:1027bc0000000000000000000000000000200000ed
:1027cc00006000000070000000d0000000d8000085
:1027dc000088000000880000018c0000010400004b
:1027ec0003040000030200000300000000000000ce
:1027fc0000000000000000000000000000000000cd
:10280c0000000000000000000000000000000000bc
:10281c0000000000000000000000000000000000ac
:10282c00000000000000000000000000000000009c
:10283c00000000000000000000000000000000008c
:10284c00000000000000000000000000000000007c
:10285c00000000000000000000000000000000006c
:10286c00000000000000000000000000000000005c
:10287c000000000000fe000003000000000000004b
:10288c00000000000000000000000000000000003c
:10289c00030600000c0800001000000000000000ff
:1028ac00000000000000000000000000000000001c
:1028bc00000000000000000000000000000000000c
:1028cc0000000000000000000000000000000000fc
:1028dc0000000000000000000000000000000000ec
:1028ec000000000000000000f00000008c0100005f
:1028fc008601000080010000f00100008c01000046
:10290c008601000086010000c6010000bc07000023
:10291c0000000000000000000000000000000000ab
:10292c00000000000000000000000000000000009b
:10293c0000000000000000000c0000000e00000071
:10294c000c0000000c0000000c0000000c0000004b
:10295c000c000000cc0100003c0300001c07000030
:10296c000c0600000c0600000c0600000c06000013
:10297c000c0200001c010000f00000000000000030
:10298c00000000000000000000000000000000003b
:10299c00000000000000000000000000000000002b
:1029ac00000000000000000000000000000000001b
:1029bc00000000000000000000000000000000000b
:1029cc00e0010000180300000c00000006000000ed
:1029dc000600000006000000060000000c000000cd
:1029ec001c030000f00000000000000000000000cc
:1029fc0000000000000000000000000000000000cb
:102a0c0000000000000000000000000000000000ba
:102a1c0000030000c00300000003000000030000de
:102a2c00000300000003000000030000f00300009e
:102a3c0088030000040300000603000006030000e6
:102a4c0006030000060300000e030000cc0b000080
:102a5c00380700000000000000000000000000002b
:102a6c00000000000000000000000000000000005a
:102a7c00000000000000000000000000000000004a
:102a8c00000000000000000000000000000000003a
:102a9c000000000000000000f0000000080300002f
:102aac0004030000fe030000060000000600000006
:102abc00060000000c0000001c030000f0000000e9
:102acc0000000000000000000000000000000000fa
:102adc0000000000000000000000000000000000ea
:102aec0000600000501800000c0c00000c0c0000e2
:102afc007e0d00000c0c00000c0c00000c0c0000f7
:102b0c000c3f00000000000000000000000000006e
:102b1c0000000000000000000000000000000000a9
:102b2c000000000000000000000000000000000099
:102b3c00000000000000000000f800000c8c0000f9
:102b4c00030600000306000003060000038c0000cf
:102b5c0001f8000000180000001c000000f8000044
:102b6c00030600000e0300000c0300000c0600001e
:102b7c0006fc000001000000000000000000000046
:102b8c000000000000000000000c0000000f00001e
:102b9c00000c0000000c0000000c0000000c0000f9
:102bac00000c000000cc0000032c0000061c0000f0
:102bbc00060c0000060c0000060c0000060c0000c1
:102bcc00060c0000060c000006bf00001f000000f1
:102bdc0000000000000000000000000000000000e9
:102bec0000000000000000000000000000000000d9
:102bfc00000000000c0c000000000000000c0000a5
:102c0c000f0c00000c0c00000c0c00000c0c000055
:102c1c003f00000000000000000000000000000069
:102c2c000000000000000000000c00000c00000080
:102c3c00000000000c0f00000c0c00000c0c00003d
:102c4c000c0c00000c0c00000c0c0000040200002a
:102c5c000100000000000000000000000000000067
:102c6c00000c0000000f0000000c0000000c000025
:102c7c00000c0000000c0000000c0000008c000098
:102c8c00078c000001cc0000002c0000003c000070
:102c9c00006c000000cc0000008c0000010c000057
:102cac00031f00000f0000000000000000000000e7
:102cbc000000000000000000000000000000000008
:102ccc0000000000000000000c0f00000c0c0000c5
:102cdc000c0c00000c0c00000c0c00000c0c000088
:102cec000c0c00000c0c00003f0000000000000069
:102cfc0000000000000000000000000000000000c8
:102d0c0000000000000000000000000000000000b7
:102d1c0000000000000000000000000000000000a7
:102d2c000000000000000000000000000000000097
:102d3c00000000008ee30000016d0000160300008f
:102d4c001c0e0000030c0000060300000c06000023
:102d5c00030c0000060300000c060000030c00002e
:102d6c00060300000c06000003bf0000df0f00008c
:102d7c000000000000000000000000000000000047
:102d8c000000000000000000000000000000000037
:102d9c000000000000000000000000000000000027
:102dac000000000000000000000000000000000017
:102dbc000000000000000000000000000000000007
:102dcc00008e0000036d0000061c0000060c0000c5
:102ddc00060c0000060c0000060c0000060c00009f
:102dec00060c000006bf00001f00000000000000e1
:102dfc0000000000000000000000000000000000c7
:102e0c0000000000000000000000000000000000b6
:102e1c0000000000000000000000000000000000a6
:102e2c0000000000000000000000000000f00000a6
:102e3c0000880000030400000306000006060000e2
:102e4c000606000006060000060c0000021c00002e
:102e5c0001f0000000000000000000000000000075
:102e6c000000000000000000000000000000000056
:102e7c000000000000000000000000000000000046
:102e8c000000000000000000000000000000000036
:102e9c00000000000000000000ce0000013d00001a
:102eac00031c0000070c0000060c0000060c0000c0
:102ebc00060c0000060c0000021c000003ec0000d5
:102ecc00000c0000000c0000000c0000000c0000c6
:102edc00003f0000000000000000000000000000a7
:102eec0000000000000000000000000000000000d6
:102efc0000000000000000000000000000000000c6
:102f0c000000000000f0000002880000030c00002c
:102f1c000306000003060000030600000306000081
:102f2c00030e0000038c0000037800000300000077
:102f3c0003000000030000000300000003c00000b9
:102f4c000f00000000000000000000000000000066
:102f5c000000000000000000000000000000000065
:102f6c000000000000000000000000000000000055
:102f7c0000cc000001af0000019c0000001c000010
:102f8c00000c0000000c0000000c0000000c000005
:102f9c00000c0000003f00000000000000000000da
:102fac000000000000000000000000000000000015
:102fbc000000000000000000000000000000000005
:102fcc0000000000000000000000000000000000f5
:102fdc00000000000000000000000000007c000069
:102fec000066000000060000000e0000003c00001f
:102ffc0000f0000000c0000000c2000000c2000091
:10300c00003e000000000000000000000000000076
:10301c0000000000000000000000000000000000a4
:10302c00000000000000000000000000000800008c
:10303c000c0c00000cfe00000d0c00000c0c000031
:10304c000c0c00000c8c000078000000000000004c
:10305c000000000000000000000000000000000064
:10306c000000000000000000000000000000000054
:10307c000000000000000000000000000000000044
:10308c000c030000ce0300000c0300000c03000036
:10309c000c0300000c0300000c0300000c030000e8
:1030ac00cc0b0000380700000000000000000000fe
:1030bc000000000000000000000000000000000004
:1030cc0000000000000000000000000000000000f4
:1030dc0000000000000000000000000000000000e4
:1030ec000000000000000000000000009f0700002e
:1030fc00040200000c0100000c010000980100000b
:10310c0098000000900000007000000060000000bb
:10311c002000000000000000000000000000000083
:10312c000000000000000000000000000000000093
:10313c000000000000000000000000000000000083
:10314c000000000000000000000000000000000073
:10315c0000000000000000001ff10000044100000e
:10316c00842300008c2300008826000048360000d1
:10317c0058140000301c0000301c00003008000007
:10318c000000000000000000000000000000000033
:10319c000000000000000000000000000000000023
:1031ac000000000000000000000000000000000013
:1031bc000000000000000000000000000000000003
:1031cc00000000009f0700000c01000098000000a8
:1031dc00f00000006000000070000000d000000053
:1031ec0088010000040300008f07000000000000ad
:1031fc0000000000000000000000000000000000c3
:10320c0000000000000000000000000000000000b2
:10321c0000000000000000000000000000000000a2
:10322c000000000000000000000000000000000092
:10323c009f070000040200000c0100000c010000bc
:10324c009801000098000000900000007000000041
:10325c006000000060000000200000003000000052
:10326c00100000000f00000007000000000000002c
:10327c000000000000000000000000000000000042
:10328c000000000000000000000000000000000032
:10329c00000000000000000000000000fe01000023
:1032ac0082010000c200000060000000200000004d
:1032bc0030000000180000000c01000004010000a8
:1032cc00fe010000000000000000000000000000f3
:1032dc0000000000000000000000000000000000e2
:1032ec00000000004030000010180000181800000a
:1032fc003830000030100000081e00003030000094
:10330c003030000018180000181800003040000081
:10331c0000000000000000000c0c00000c0c000071
:10332c000c0c00000c0c00000c0c00000c0c000031
:10333c000c0c00000c0c00000c0c00000c0c000021
:10334c000c0c00000c0c0000000000000000000041
:10335c00020c000018180000181800000c0c0000db
:10336c000c0c000078100000080c00000c1c000075
:10337c0018180000180800000c02000000000000e3
:10338c000000000000000000000000000000000031
:10339c000000000000000000000000000000000021
:1033ac0000000000000000000000000000180000f9
:1033bc00047c000002f2000001c2000001000000c9
:1033cc0000000000000000000000000000000000f1
:1033dc0000000000000000000000000000000000e1
:1033ec0000000000000000000000000000000000d1
:1033fc005000000065000000720000006600000034
:10340c006f000000720000006d00000069000000f9
:10341c006e00000067000000200000007400000037
:10342c006f000000750000006300000068000000e1
:10343c000000000073000000630000007200000038
:10344c0065000000650000006e0000002000000018
:10345c0063000000610000006c00000069000000c7
:10346c0062000000720000006100000074000000a7
:10347c00690000006f0000006e0000002e000000cc
:10348c0000000000540000006f00000075000000f8
:10349c0063000000680000002000000073000000c2
:1034ac006300000072000000650000006500000071
:1034bc006e00000020000000740000006f0000008f
:1034cc0000000000630000006f0000006e000000b0
:1034dc0074000000690000006e0000007500000020
:1034ec00650000002e0000000000000054000000e9
:1034fc006f0000002000000052000000450000009a
:10350c005000000045000000410000005400000085
:10351c002000000063000000610000006c0000004f
:10352c0069000000620000007200000061000000f1
:10353c0074000000690000006f0000006e000000c5
:10354c002c0000000000000072000000650000006c
:10355c0073000000650000007400000020000000f3
:10356c0074000000680000006500000020000000ee
:10357c00620000006f00000061000000720000009b
:10358c0064000000200000007700000068000000cc
:10359c00690000006c0000006500000000000000e5
:1035ac007000000072000000650000007300000055
:1035bc0073000000690000006e000000670000004e
:1035cc00200000006f0000006e00000020000000d2
:1035dc00740000006800000065000000200000007e
:1035ec007300000063000000720000006500000022
:1035fc0065000000650000006e0000000000000087
:10360c00750000006e0000007400000069000000ee
:10361c006c00000020000000740000006800000036
:10362c006500000020000000630000006100000045
:10363c006c000000690000006200000072000000d5
:10364c006100000074000000690000006f000000c1
:10365c006e0000000000000070000000720000000e
:10366c006f0000006d00000070000000740000008e
:10367c0020000000610000007000000070000000dd
:10368c006500000061000000720000007300000083
:10369c002e000000000000000001000000010000ee
:1036ac000001000000010000ff000000ff0000000e
:1036bc00ff000000fe000000fe000000fd00000006
:1036cc00fc000000fb000000fa000000f900000004
:1036dc00f8000000f7000000f6000000f500000004
:1036ec00f3000000f2000000f1000000ef00000009
:1036fc00ed000000ec000000ea000000e800000013
:10370c00e6000000e4000000e2000000e000000021
:10371c00de000000db000000d9000000d700000034
:10372c00d4000000d2000000cf000000cc0000004c
:10373c00ca000000c7000000c4000000c100000067
:10374c00be000000bb000000b8000000b500000087
:10375c00b2000000af000000ab000000a8000000a9
:10376c00a5000000a10000009e0000009a000000cf
:10377c0096000000930000008f0000008b000000fa
:10378c008800000084000000800000007c00000025
:10379c007800000074000000700000006c00000055
:1037ac006800000064000000600000005c00000085
:1037bc0058000000530000004f0000004b000000b8
:1037cc0047000000420000003e0000003a000000ec
:1037dc0035000000310000002c0000002800000023
:1037ec00240000001f0000001b0000001600000059
:1037fc00120000000d000000090000000400000091
:10380c000000000014f100006f0000006e000000ca
:10381c00200000007400000068000000650000003b
:10382c002000000066000000690000006c00000031
:10383c006c00000065000000640000000000000047
:10384c0063000000690000007200000063000000cb
:10385c006c0000006500000000000000500000003b
:10386c00720000006500000073000000730000008f
:10387c002000000026000000200000005200000084
:10388c00650000006c000000650000006100000095
:10389c00730000006500000000000000b02a00006a
:1038ac003ed70000e9000000ffff0000bbf700005e
:1038bc00ddae00003e2600009fb600007ed7000063
:1038cc004e8500000200000003000000060000000e
:0838dc000001000001000000e2
:020000040000fa
:1038e4000400fa00203a800070006000e00f5000ed
:1038f4000300320010412000100798000200370036
:103904003082200010079800e6e4a900e6c4a9006c
:10391400ea04a900e3e4a900e3c4a900ed24a90092
:10392400e3a4a900e384a900e364a900e344a90093
:10393400e0e4a900ecc4a90001308000f07f2e006f
:1039440000806000003088000130800000302000da
:10395400008070000030880001308000f0f32f00f8
:10396400008060000030880000a6a9000086a9003d
:103974000046a9000020200050308800203080003c
:103984003000b3002030880009e6a90009c6a90068
:103994000986a9000946a9000926a90009a6a800c4
:1039a4000906a90041308000f0f92f0080806000f2
:1039b40000042000008070004030880061308000e6
:1039c400f0ff23000080600060308800803e20000b
:1039d400000f78001e0090009e007800808f500039
:1039e4000500310061308000f07f2c000080600011
:1039f40060308800280037001e0090009e00780088
:103a0400808f5000240039001e0090009e00780032
:103a140000017800110009008280d800004078007d
:103a2400674060000080fb00670060004b00dd0021
:103a340062308000f17f2c00810061000080700002
:103a4400603088001e0090009e007800000178001d
:103a5400110009008280d8008000fd00e00f5000b2
:103a64000d003200603080004b00de0067406000d3
:103a74000040e800674060000080fb0067006000d1
:103a84004b00dd0062308000f17f2c00810061007a
:103a940000807000603088000fe6a8000000eb0092
:103aa4008030880000c0eb0002e6b7000080eb0025
:103ab4003030880005e6a80005c6a8000586a800e1
:103ac40005a6a80021308000f09f2f000080600030
:103ad400203088000506a9004006200018ac02002a
:103ae40000000000113080000030200000807000d1
:103af4001030880001e6a8004006200018ac02003f
:103b0400000000000080fa00000006000000fa0037
:103b1400c4a2a800c0a2a9004487a800313a80002a
:103b2400f01f20008080600000c02400008070002e
:103b3400303a88006aff07000000eb002038880054
:103b44000000eb00203988000000eb0030398800c9
:103b54000000eb00403888000000eb00503888007b
:103b64000000eb00803988000000eb00b0398800c9
:103b74000000eb00903988000000eb00c039880099
:103b84000000eb00d03988000000eb00003888000a
:103b94000000eb001038880021388000f0f12f007d
:103ba40080806000000820000080700020388800b9
:103bb40021398000f0f12f0080806000000820008f
:103bc40000807000203988002139800080ff2f0098
:103bd400008060000000a0002039880026c7a800eb
:103be4002647a8002687a9002607a80026a7a9001b
:103bf4002627a8002667a80026e7a900001e2000a3
:103c0400e038880000112000f0388800001e2000f1
:103c1400a038880000112000b0388800d02020008f
:103c240000398800e01120001039880090c2b300e8
:103c34002be7b7000040eb002ae7b700a0c0b300b1
:103c44002de7b7000040eb002ce7b7002ac7bf0000
:103c5400b042b0002ee7b7002cc7bf006c40400054
:103c64002fe7b7002ec7bf0028e7b7002fc7bf0054
:103c740029e7b700000020002100200070438800dd
:103c84008143880000002000210020009043880028
:103c9400a14388000000200021002000b0438800d8
:103ca400c14388006000b80000002000210020000b
:103cb40000007800c03888006000b80000002000d0
:103cc4002100200001007800d03888000080eb003b
:103cd400f03988002727a80021398000f0ff2c0044
:103ce40000806000203988009080a900a080a9008d
:103cf40005e7a8004006200018ac02000000000000
:103d04002707a8000000eb0050438800f3102000b0
:103d1400f21d20008000eb000000eb0063060700aa
:103d24004006200018ac0200000000000040eb0038
:103d3400060007000080fa00000006000200fa00f6
:103d4400000f78000080fa00000006000200fa006c
:103d5400004f78009e4078000180fb0000438800fb
:103d640000438000e00f50005200320020388000f1
:103d7400004078007f4060000080fb00700010006d
:103d8400e10f5000f9ff340010438000cf80de00c3
:103d94004c09dd00c401de00830171004c01dd002b
:103da40020438000cf80de0000017100818171001a
:103db4000000200001802500000171008181710054
:103dc4006000b8000200be000000780000388800df
:103dd40010438000cf80de004c09dd00c401de000a
:103de400830171004c01dd0020438000cf80de00a0
:103df4000001710081817100000020000180250014
:103e040000017100818171006000b8000200be00f1
:103e14000100780010388800000000003043800062
:103e2400cf80de004c09dd00c401de008301710097
:103e34004c01dd0040438000cf80de0000017100b2
:103e440081817100000020000190250000017100b3
:103e5400818171006000b8000200be00000078009b
:103e64000038880030438000cf80de004c09dd003c
:103e7400c401de00830171004c01dd004043800079
:103e8400cf80de00000171008181710000002000fc
:103e94000190250000017100818171006000b8006b
:103ea4000200be0001007800103888000000000005
:103eb4001d00370020388000004078007f406000fb
:103ec4000080fb0070001000e10f5000f9ff340087
:103ed4006000b80000002000018025000000780088
:103ee400003888006000b800000020000180250030
:103ef4000100780010388800000000006000b8005d
:103f0400f0102f00d19125000000780000388800bf
:103f14006000b800f0102f00d19125000100780056
:103f240010388800000000000080fa00000006003d
:103f34000800fa00000f7800110798002207980083
:103f4400330798001e007800104388001e0090007c
:103f5400204388002e009000304388003e009000eb
:103f64004043880000438000e00f5000030032000b
:103f7400004380000040780074ff07000080fa00ce
:103f8400000006001800fa00400798005107980046
:103f94006207980073079800040f9800150f9800a3
:103fa400260f9800370f98002038800000407800d2
:103fb4007f4060000080fb0070001000ef0f500095
:103fc400f9ff3400313880000000280000806000d0
:103fd400e00f5000fbff3a0060388000000f7800cb
:103fe40070388000100798008038800020079800ff
:103ff40090388000300798006000b8004e009000b0
:10400400de00900000007800603888006000b8008e
:104014004e009000de0090000100780070388800a7
:104024006000b8006e009000fe0090000000780070
:10403400803888006000b8006e009000fe00900098
:1040440001007800903888000e0990009e099000c5
:104054000000200001202600000171008181710010
:104064006000b8000200be0000007800003888003c
:104074000e0990009e0990000000200001202600f7
:1040840000017100818171006000b8000200be006f
:104094000100780010388800000000002e0990000c
:1040a400be099000000020000130260000017100cc
:1040b400818171006000b8000200be000000780039
:1040c400003888002e099000be09900000002000ee
:1040d4000130260000017100818171006000b80088
:1040e4000200be00010078001038880000000000c3
:1040f4007eb09700010020004c09dd00c401de0001
:10410400830171004c01dd006eb0970001002000b6
:10411400000171008181710000002000014026002f
:1041240000017100818171006000b8000200be00ce
:1041340000007800003888007eb09700010020005d
:104144004c09dd00c401de00830171004c01dd0077
:104154006eb09700010020000001710081817100a0
:1041640000002000014026000001710081817100df
:104174006000b8000200be0001007800103888001a
:1041840000000000aeb8970000302000808f50007f
:10419400030032002eb89700e00f500033003a00bd
:1041a4000eb897006101b800f0ff2f000100200055
:1041b4000202780003017800800178000100780091
:1041c400030262000000610001002000c000dd0065
:1041d400000020000001be006120b8000001710051
:1041e400818171000000200001602600000171003f
:1041f400818171006000b8000200be0000007800f8
:10420400003888000eb897006101b800f0ff2f0055
:104214000100200002027800030178008001780088
:104224000100780003026200000061000100200028
:10423400c000dd00000020000001be006120b800c5
:1042440000017100818171000000200001602600de
:1042540000017100818171006000b8000200be009d
:104264000100780010388800000000004eb8970064
:10427400e10f5000030032004eb89700e00f5000e9
:10428400020032002000200040bf9f003eb897008b
:10429400e10f5000030032003eb89700e00f5000d9
:1042a400020032004000200030bf9f002eb897006b
:1042b4006101b8001eb897000100200000017100e0
:1042c400818171004eb89700010020000001710047
:1042d400818171003eb89700010020000001710047
:1042e400818171000000200001702600000171002e
:1042f400818171006000b8000200be0000007800f7
:10430400003888002eb897006101b8001eb89700e5
:104314000100200000017100818171004eb89700f6
:104324000100200000017100818171003eb89700f6
:104334000100200000017100818171000000200053
:104344000170260000017100818171006000b800d5
:104354000200be0001007800103888000000000050
:1043640020388000004078007f4060000080fb001f
:1043740070001000ef0f5000f9ff34003138800056
:104384000000280000806000e00f5000fbff3a00ae
:104394001e007800603888001e0090007038880085
:1043a4002e009000803888003e00900090388800ed
:1043b400100020000080fa00000006003600fa0019
:1043c4003017980041179800521798006317980007
:1043d40074179800051f9800161f9800271f98004f
:1043e4003e109000ce109000008fbe005e10900032
:1043f400ee10900020079800310798007e1090007e
:104404008e18900040079800510798001e189000dd
:10441400ae1890006007980071079800ceb8970016
:10442400010f98003eb89700100f9800aeb897009f
:10443400210f98001eb89700300f98008eb897008f
:10444400410f98007eb09700500f9800eeb097008f
:10445400610f980020388000004078007f406000a1
:104464000080fb0070001000ef0f5000f9ff3400d3
:10447400313880000000280000806000e00f500008
:10448400fbff3a0060388000700f9800703880009d
:10449400001798008038800010179800903880002a
:1044a400201798006000b8001e00be0000007800cd
:1044b400603888006000b8001e00be00010078006b
:1044c400703888006000b8002e009000be00900094
:1044d40000007800803888006000b8002e0090004a
:1044e400be00900001007800903888004e019000d2
:1044f400de01900000002000012026000001710070
:10450400818171006000b8000200be0000007800e4
:10451400003888004e019000de0190000000200069
:104524000120260000017100818171006000b80043
:104534000200be000100780010388800000000006e
:104544006e019000fe019000000020000130260062
:1045540000017100818171006000b8000200be009a
:1045640000007800003888006e019000fe01900081
:1045740000002000013026000001710081817100db
:104584006000b8000200be00010078001038880006
:10459400000000005e089000010020004c09dd00ce
:1045a400c401de00830171004c01dd006e0890003f
:1045b40001002000000171008181710000002000d1
:1045c4000140260000017100818171006000b80083
:1045d4000200be0000007800003888005e089000e9
:1045e400010020004c09dd00c401de0083017100dc
:1045f4004c01dd006e0890000100200000017100f4
:10460400818171000000200001402600000171003a
:10461400818171006000b8000200be0001007800d2
:104624001038880000000000ae0890000030200020
:10463400808f5000030032002e089000e00f5000dd
:1046440033003a004e0890006101b800f0ff2f00db
:104654000100200002027800030178008001780044
:1046640001007800030262000000610001002000e4
:10467400c000dd00000020000001be006120b80081
:10468400000171008181710000002000016026009a
:1046940000017100818171006000b8000200be0059
:1046a40000007800003888004e0890006101b800ce
:1046b400f0ff2f00010020000202780003017800bf
:1046c40080017800010078000302620000006100ac
:1046d40001002000c000dd00000020000001be0039
:1046e4006120b80000017100818171000000200088
:1046f4000160260000017100818171006000b80032
:104704000200be000100780010388800000000009c
:104714000e089000e10f5000030032000e089000d4
:10472400e00f50000200320020002000000f98002b
:104734001e089000e10f5000030032001e08900094
:10474400e00f50000200320040002000100f9800db
:104754002e0890006101b8003e089000010020007e
:1047640000017100818171000e0890000100200099
:1047740000017100818171001e0890000100200079
:104784000001710081817100000020000170260089
:1047940000017100818171006000b8000200be0058
:1047a40000007800003888002e0890006101b800ed
:1047b4003e08900001002000000171008181710019
:1047c4000e08900001002000000171008181710039
:1047d4001e08900001002000000171008181710019
:1047e4000000200001702600000171008181710029
:1047f4006000b8000200be00010078001038880094
:104804000000000020388000004078007f406000f5
:104814000080fb0070001000ef0f5000f9ff34001f
:10482400313880000000280000806000e00f500054
:10483400fbff3a007e089000603888000e1090005c
:10484400703888001e109000803888002e10900068
:1048540090388800100020000080fa000000060054
:104864003600fa0030179800411798005217980044
:104874006317980074179800051f9800161f980076
:10488400271f98003e109000ce109000008fbe00ad
:104894005e109000ee1090002007980031079800f9
:1048a4007e1090008e1890004007980051079800e1
:1048b4001e189000ae1890006007980071079800c9
:1048c4000000eb00000f98000000eb00100f9800b0
:1048d40000082000200f980000062000300f9800e8
:1048e4000000eb00400f9800ceb89700510f9800dd
:1048f4003eb89700600f9800203880000040780090
:104904007f4060000080fb0070001000ef0f50003b
:10491400f9ff340031388000000028000080600076
:10492400e00f5000fbff3a0060388000700f9800e1
:1049340070388000001798008038800010179800a5
:1049440090388000201798006000b8001e00be0058
:1049540000007800603888006000b8001e00be00c7
:1049640001007800703888006000b8002e009000c4
:10497400be00900000007800803888006000b80015
:104984002e009000be00900001007800903888004e
:104994004e019000de01900000002000012026005e
:1049a40000017100818171006000b8000200be0046
:1049b40000007800003888004e019000de0190006d
:1049c4000000200001202600000171008181710097
:1049d4006000b8000200be000100780010388800b2
:1049e400000000006e019000fe0190000000200015
:1049f4000130260000017100818171006000b8005f
:104a04000200be0000007800003888006e019000ab
:104a1400fe0190000000200001302600000171001a
:104a2400818171006000b8000200be0001007800be
:104a340010388800000000005e089000010020008b
:104a44004c09dd00c401de00830171004c01dd006e
:104a54006e08900001002000000171008181710046
:104a640000002000014026000001710081817100d6
:104a74006000b8000200be00000078000038880022
:104a84005e089000010020004c09dd00c401de0036
:104a9400830171004c01dd006e08900001002000cc
:104aa4000001710081817100000020000140260096
:104ab40000017100818171006000b8000200be0035
:104ac400010078001038880000000000ae08900053
:104ad40000302000808f5000030032002e08900028
:104ae400e00f500033003a004e0890006101b80016
:104af400f0ff2f000100200002027800030178007b
:104b04008001780001007800030262000000610067
:104b140001002000c000dd00000020000001be00f4
:104b24006120b80000017100818171000000200043
:104b34000160260000017100818171006000b800ed
:104b44000200be0000007800003888004e08900083
:104b54006101b800f0ff2f0001002000020278007c
:104b640003017800800178000100780003026200ec
:104b74000000610001002000c000dd0000002000f2
:104b84000001be006120b800000171008181710044
:104b94000000200001602600000171008181710085
:104ba4006000b8000200be000100780010388800e0
:104bb400000000000e089000e10f500003003200d6
:104bc4000e089000e00f5000020032002000200088
:104bd400000f98001e089000e10f500003003200ff
:104be4001e089000e00f5000020032004000200038
:104bf400100f98002e0890006101b8003e08900044
:104c04000100200000017100818171000e089000f4
:104c14000100200000017100818171001e089000d4
:104c2400010020000001710081817100000020005a
:104c34000170260000017100818171006000b800dc
:104c44000200be0000007800003888002e089000a2
:104c54006101b8003e0890000100200000017100cd
:104c6400818171000e089000010020000001710094
:104c7400818171001e089000010020000001710074
:104c84008181710000002000017026000001710084
:104c9400818171006000b8000200be00010078004c
:104ca40010388800000000002038800000407800a0
:104cb4007f4060000080fb0070001000ef0f500088
:104cc400f9ff3400313880000000280000806000c3
:104cd400e00f5000fbff3a007e0890006038880027
:104ce4000e109000703888001e10900080388800e4
:104cf4002e10900090388800100020000080fa00e8
:104d0400000006002400fa00200f9800310f9800dc
:104d1400420f9800530f9800640f9800750f980085
:104d240006179800171798003eb89700000f7800f0
:104d34004eb89700100798006e089000200798005e
:104d44007e089000300798000e10900040079800ed
:104d54001e109000500798003e00900001002000b3
:104d6400021e20000289b900020178006002b90025
:104d74008401780003014100031e20000300b800f1
:104d840001014100820078002e0190000300200000
:104d94000000410081804900600798007107980075
:104da4005e00900001002000021e20000289b9006c
:104db400020178006002b900840178000301410017
:104dc400031e20000300b8000101410082007800a6
:104dd4004e01900003002000000041008180490042
:104de400000f9800110f98009e1f78001e0090007d
:104df400801f78000000eb00801f78000006200070
:104e0400801f780000082000801f78000000eb005d
:104e1400801f78000000eb00801f78000e0b9000cc
:104e24009e0b90006e029000fe0290004e099000ce
:104e3400de0990002e089000be0890005ffd070078
:104e4400ee875700100020000080fa0000000600e2
:104e54001400fa0040079800510798006207980070
:104e640073079800040f9800150f980020388000ed
:104e7400004078007f4060000080fb00700010005c
:104e8400ef0f500002003c000000eb00b7003700b9
:104e9400ee0090004e009000008050000000e800fa
:104ea40020079800fe0090005e00900000805000f3
:104eb4000000e800300798007243800083438000bc
:104ec4006000b8000200be0000007800603888006e
:104ed40072438000834380006000b8000200be007b
:104ee400010078007038880092438000a34380005a
:104ef4006000b8000200be0000007800803888001e
:104f040092438000a34380006000b8000200be000a
:104f140001007800903888005e0090006101b900bb
:104f2400a1388000f07f2000008060000100200094
:104f3400009ab90004027800028bb9008602780056
:104f4400050242000010b80001024200840078000b
:104f54004e019000cf91de00021f400003974800ed
:104f640000002000012026003e017000ae81700088
:104f74006000b8000200be0000007800003888001d
:104f840000002000012026003e017000ae81700068
:104f94006000b8000200be000100780010388800ec
:104fa400000000001e089000e00f500017003a00b7
:104fb4005e0090006101b900a1388000f07f2000fc
:104fc4000080600001002000009ab900040278000b
:104fd400028bb90086027800050242000010b80076
:104fe40001024200840078004e019000cf91de005f
:104ff40000014100818149000e089000cf80de004d
:10500400001f510001975900160037005e00900000
:105014006101b900a1388000f07f200000806000a9
:1050240001002000009ab90004027800028bb90044
:1050340086027800050242000010b8000102420016
:10504400840078004e019000cf91de000001410001
:10505400818149000e089000cf80de00001f4100ce
:105064000197490000002000013026003e01700035
:10507400ae8170006000b8000200be00000078003d
:105084000038880000002000013026003e01700036
:10509400ae8170006000b8000200be00010078001c
:1050a40010388800000000002e009000cf80de0041
:1050b4004c09dd00c401de00830171004c01dd00f8
:1050c4003e009000cf80de000001710081817100fc
:1050d4000000200001402600000171008181710060
:1050e4006000b8000200be000000780000388800ac
:1050f4002e009000cf80de004c09dd00c401de00ec
:10510400830171004c01dd003e009000cf80de0081
:10511400000171008181710000002000014026001f
:1051240000017100818171006000b8000200be00be
:105134000100780010388800000000006000b8000a
:10514400000e20000170260000007800003888005e
:105154006000b800000e20000170260001007800f5
:105164001038880000000000100020000080fa00c1
:10517400000006000400fa00000f780011079800f0
:1051840000438000e00f5000100032001043800004
:105194009e007800808f50009a00350030438000d4
:1051a4009e007800808f500098003c0020438000cf
:1051b4009e009000808f5000960035004043800090
:1051c4009e009000808f500094003c009243800029
:1051d400a34380006000b8000200be000000780015
:1051e4008038880092438000a34380006000b800a8
:1051f4000200be000100780090388800203880004a
:10520400004078007f4060000080fb0070001000c8
:10521400e30f5000f9ff3400504380006101b800ef
:10522400f0ff2f0001002000020278000301780043
:105234008001780001007800030262000000610030
:1052440001002000c000dd00000020000001be00bd
:105254006120b8000001710081817100000020000c
:105264000160260000017100818171006000b800b6
:105274000200be000000780000388800504380001f
:105284006101b800f0ff2f00010020000202780045
:1052940003017800800178000100780003026200b5
:1052a4000000610001002000c000dd0000002000bb
:1052b4000001be006120b80000017100818171000d
:1052c400000020000160260000017100818171004e
:1052d4006000b8000200be000100780010388800a9
:1052e400000000001e009000cf80de00021e20009f
:1052f4000289b900020178006002b90084017800d3
:1053040003014100031e20000300b8000101410015
:10531400820078001e017800cf91de000001410078
:105324008181490000002000013026000001710045
:10533400818171006000b8000200be0000007800a6
:10534400003888001e009000cf80de00021e20007e
:105354000289b900020178006002b9008401780072
:1053640003014100031e20000300b80001014100b5
:10537400820078001e017800cf91de000001410018
:1053840081814900000020000130260000017100e5
:10539400818171006000b8000200be000100780045
:1053a40010388800000000006000b80010002100e0
:1053b4000140260000007800003888006000b80032
:1053c40010002100014026000100780010388800f8
:1053d400000000006000b8000006200001702600f4
:1053e40000007800003888006000b8000006200043
:1053f40001702600010078001038880000000000c9
:10540400070037000000000005003700000000001e
:105414000300370000000000010037000000000016
:105424000080fa00000006000600fa001007980049
:10543400210798000000eb00000f78001e00900088
:10544400e00f50000b0035002e009000e00f5000dc
:10545400080035009e009000f01d2000808f500051
:1054640004003c00ae009000f0102000808f50003b
:1054740002003400100020008a0037002038800029
:10548400004078007f4060000080fb007000100046
:10549400ef0f5000f9ff340031388000000028007d
:1054a40000806000e00f5000fbff3a00b243800030
:1054b400c34380006000b8000200be000000780012
:1054c40060388800b2438000c34380006000b800a5
:1054d4000200be0001007800703888000e007800d9
:1054e4006101b8006000b8000200be00000078004e
:1054f400803888000e0078006101b8006000b800b0
:105504000200be0001007800903888002038800036
:10551400004078007f4060000080fb0070001000b5
:10552400e30f5000f9ff34002e009000cf80de001e
:10553400021e20000289b900020178006002b9004d
:105544008401780003014100031e20000300b80019
:1055540001014100820078001e019000cf91de001d
:105564000001410081814900000020000120260043
:1055740000017100818171006000b8000200be006a
:1055840000007800003888002e009000cf80de00f4
:10559400021e20000289b900020178006002b900ed
:1055a4008401780003014100031e20000300b800b9
:1055b40001014100820078001e019000cf91de00bd
:1055c40000014100818149000000200001202600e3
:1055d40000017100818171006000b8000200be000a
:1055e4000100780010388800000000006000b80056
:1055f40000002000013026000000780000388800f8
:105604006000b8000000200001302600010078008e
:1056140010388800000000006000b800100021006d
:105624000140260000007800003888006000b800bf
:105634001000210001402600010078001038880085
:10564400000000006000b800000e20000170260079
:1056540000007800003888006000b800000e2000c8
:105664000170260001007800103888000000000056
:1056740020388000004078007f4060000080fb00fc
:1056840070001000ef0f5000f9ff34003138800033
:105694000000280000806000e00f5000fbff3a008b
:1056a4001e0078000080fa00000006001000fa00d6
:1056b4004007980051079800620798007307980004
:1056c400ce0090006e009000808f500002003400e5
:1056d40010002000f7003700de0090007e009000ec
:1056e400808f50000200340010002000f1003700c9
:1056f40000438000e00f5000190032001043800086
:10570400ce009000808f500002003d0010438000c6
:105714004007980030438000ee009000808f5000d6
:10572400020034003043800060079800204380006a
:10573400de009000808f500002003d002043800076
:105744005007980040438000fe009000808f500076
:105754002f00340040438000700798002c0037006d
:105764004e009000e00f5000060035004e009000ff
:10577400f11d2000810f500003003400f01d2000b3
:10578400010037000000eb00400798005e00900025
:10579400e00f5000060035005e009000f11020007c
:1057a400810f500003003400f01020000100370086
:1057b4000000eb00500798006e009000e00f5000ce
:1057c400060035006e009000f11d2000810f50008e
:1057d40003003400f01d2000010037000000eb003e
:1057e400600798007e009000e00f5000060035002e
:1057f4007e009000f1102000810f5000030034005f
:10580400f0102000010037000000eb007007980042
:10581400ee0090004e00900000805000000fe80061
:10582400fe0090005e009000008050000000e80040
:105834001007980020388000004078007f40600006
:105844000080fb0070001000ef0f500002003c00cd
:105854000000eb00970037005e009000cf80de0070
:10586400021e20000289b900020178006002b9001a
:105874008401780003014100031e20000300b800e6
:1058840001014100820078004e019000cf91de00ba
:1058940000004100818049002007980031079800ea
:1058a400b2438000c34380006000b8000200be0021
:1058b4000000780080388800b2438000c343800031
:1058c4006000b8000200be00010078009038880033
:1058d400504380006101b800f0ff2f000100200058
:1058e400020278000301780080017800010078004a
:1058f400030262000000610001002000c000dd001e
:10590400000020000001be006120b8000001710009
:1059140081817100000020000160260000017100f7
:10592400818171006000b8000200be0000007800b0
:1059340000388800504380006101b800f0ff2f0058
:105944000100200002027800030178008001780041
:1059540001007800030262000000610001002000e1
:10596400c000dd00000020000001be006120b8007e
:105974000001710081817100000020000160260097
:1059840000017100818171006000b8000200be0056
:105994000100780010388800000000002e019000fb
:1059a400be019000000020000130260000017100bb
:1059b400818171006000b8000200be000000780020
:1059c400003888002e019000be01900000002000e5
:1059d4000130260000017100818171006000b8006f
:1059e4000200be00010078001038880000000000aa
:1059f4001e007800cf80de004c09dd00c401de000b
:105a0400830171004c01dd001e009000cf80de0098
:105a14000001710081817100000020000140260016
:105a240000017100818171006000b8000200be00b5
:105a340000007800003888001e007800cf80de0067
:105a44004c09dd00c401de00830171004c01dd005e
:105a54001e009000cf80de00000171008181710082
:105a640000002000014026000001710081817100c6
:105a74006000b8000200be00010078001038880001
:105a8400000000006000b80000062000017026003d
:105a940000007800003888006000b800000620008c
:105aa4000170260001007800103888000000000012
:105ab400100020000080fa00000006000000fa0038
